{
  "contractName": "GrapeToken",
  "abi": [
    {
      "inputs": [],
      "stateMutability": "nonpayable",
      "type": "constructor"
    },
    {
      "anonymous": false,
      "inputs": [
        {
          "indexed": true,
          "internalType": "address",
          "name": "owner",
          "type": "address"
        },
        {
          "indexed": true,
          "internalType": "address",
          "name": "spender",
          "type": "address"
        },
        {
          "indexed": false,
          "internalType": "uint256",
          "name": "value",
          "type": "uint256"
        }
      ],
      "name": "Approval",
      "type": "event"
    },
    {
      "anonymous": false,
      "inputs": [
        {
          "indexed": true,
          "internalType": "bytes32",
          "name": "role",
          "type": "bytes32"
        },
        {
          "indexed": true,
          "internalType": "bytes32",
          "name": "previousAdminRole",
          "type": "bytes32"
        },
        {
          "indexed": true,
          "internalType": "bytes32",
          "name": "newAdminRole",
          "type": "bytes32"
        }
      ],
      "name": "RoleAdminChanged",
      "type": "event"
    },
    {
      "anonymous": false,
      "inputs": [
        {
          "indexed": true,
          "internalType": "bytes32",
          "name": "role",
          "type": "bytes32"
        },
        {
          "indexed": true,
          "internalType": "address",
          "name": "account",
          "type": "address"
        },
        {
          "indexed": true,
          "internalType": "address",
          "name": "sender",
          "type": "address"
        }
      ],
      "name": "RoleGranted",
      "type": "event"
    },
    {
      "anonymous": false,
      "inputs": [
        {
          "indexed": true,
          "internalType": "bytes32",
          "name": "role",
          "type": "bytes32"
        },
        {
          "indexed": true,
          "internalType": "address",
          "name": "account",
          "type": "address"
        },
        {
          "indexed": true,
          "internalType": "address",
          "name": "sender",
          "type": "address"
        }
      ],
      "name": "RoleRevoked",
      "type": "event"
    },
    {
      "anonymous": false,
      "inputs": [
        {
          "indexed": true,
          "internalType": "address",
          "name": "from",
          "type": "address"
        },
        {
          "indexed": true,
          "internalType": "address",
          "name": "to",
          "type": "address"
        },
        {
          "indexed": false,
          "internalType": "uint256",
          "name": "value",
          "type": "uint256"
        }
      ],
      "name": "Transfer",
      "type": "event"
    },
    {
      "anonymous": false,
      "inputs": [
        {
          "indexed": false,
          "internalType": "uint256",
          "name": "priceCumulativeLast",
          "type": "uint256"
        },
        {
          "indexed": false,
          "internalType": "uint256",
          "name": "blockTimestampLast",
          "type": "uint256"
        },
        {
          "indexed": false,
          "internalType": "uint256",
          "name": "priceAverageLast",
          "type": "uint256"
        }
      ],
      "name": "TwapUpdated",
      "type": "event"
    },
    {
      "inputs": [],
      "name": "DEFAULT_ADMIN_ROLE",
      "outputs": [
        {
          "internalType": "bytes32",
          "name": "",
          "type": "bytes32"
        }
      ],
      "stateMutability": "view",
      "type": "function",
      "constant": true
    },
    {
      "inputs": [],
      "name": "MINTER_ROLE",
      "outputs": [
        {
          "internalType": "bytes32",
          "name": "",
          "type": "bytes32"
        }
      ],
      "stateMutability": "view",
      "type": "function",
      "constant": true
    },
    {
      "inputs": [],
      "name": "WETH",
      "outputs": [
        {
          "internalType": "address",
          "name": "",
          "type": "address"
        }
      ],
      "stateMutability": "view",
      "type": "function",
      "constant": true
    },
    {
      "inputs": [
        {
          "internalType": "address",
          "name": "owner",
          "type": "address"
        },
        {
          "internalType": "address",
          "name": "spender",
          "type": "address"
        }
      ],
      "name": "allowance",
      "outputs": [
        {
          "internalType": "uint256",
          "name": "",
          "type": "uint256"
        }
      ],
      "stateMutability": "view",
      "type": "function",
      "constant": true
    },
    {
      "inputs": [
        {
          "internalType": "address",
          "name": "spender",
          "type": "address"
        },
        {
          "internalType": "uint256",
          "name": "amount",
          "type": "uint256"
        }
      ],
      "name": "approve",
      "outputs": [
        {
          "internalType": "bool",
          "name": "",
          "type": "bool"
        }
      ],
      "stateMutability": "nonpayable",
      "type": "function"
    },
    {
      "inputs": [
        {
          "internalType": "address",
          "name": "account",
          "type": "address"
        }
      ],
      "name": "balanceOf",
      "outputs": [
        {
          "internalType": "uint256",
          "name": "",
          "type": "uint256"
        }
      ],
      "stateMutability": "view",
      "type": "function",
      "constant": true
    },
    {
      "inputs": [],
      "name": "blockTimestampLast",
      "outputs": [
        {
          "internalType": "uint32",
          "name": "",
          "type": "uint32"
        }
      ],
      "stateMutability": "view",
      "type": "function",
      "constant": true
    },
    {
      "inputs": [
        {
          "internalType": "uint256",
          "name": "amount",
          "type": "uint256"
        }
      ],
      "name": "burn",
      "outputs": [],
      "stateMutability": "nonpayable",
      "type": "function"
    },
    {
      "inputs": [
        {
          "internalType": "address",
          "name": "account",
          "type": "address"
        },
        {
          "internalType": "uint256",
          "name": "amount",
          "type": "uint256"
        }
      ],
      "name": "burnFrom",
      "outputs": [],
      "stateMutability": "nonpayable",
      "type": "function"
    },
    {
      "inputs": [],
      "name": "cap",
      "outputs": [
        {
          "internalType": "uint256",
          "name": "",
          "type": "uint256"
        }
      ],
      "stateMutability": "view",
      "type": "function",
      "constant": true
    },
    {
      "inputs": [],
      "name": "decimals",
      "outputs": [
        {
          "internalType": "uint8",
          "name": "",
          "type": "uint8"
        }
      ],
      "stateMutability": "view",
      "type": "function",
      "constant": true
    },
    {
      "inputs": [
        {
          "internalType": "address",
          "name": "spender",
          "type": "address"
        },
        {
          "internalType": "uint256",
          "name": "subtractedValue",
          "type": "uint256"
        }
      ],
      "name": "decreaseAllowance",
      "outputs": [
        {
          "internalType": "bool",
          "name": "",
          "type": "bool"
        }
      ],
      "stateMutability": "nonpayable",
      "type": "function"
    },
    {
      "inputs": [],
      "name": "getCurrentTwap",
      "outputs": [
        {
          "internalType": "uint256",
          "name": "",
          "type": "uint256"
        }
      ],
      "stateMutability": "view",
      "type": "function",
      "constant": true
    },
    {
      "inputs": [],
      "name": "getLastTwap",
      "outputs": [
        {
          "internalType": "uint256",
          "name": "",
          "type": "uint256"
        }
      ],
      "stateMutability": "view",
      "type": "function",
      "constant": true
    },
    {
      "inputs": [
        {
          "internalType": "bytes32",
          "name": "role",
          "type": "bytes32"
        }
      ],
      "name": "getRoleAdmin",
      "outputs": [
        {
          "internalType": "bytes32",
          "name": "",
          "type": "bytes32"
        }
      ],
      "stateMutability": "view",
      "type": "function",
      "constant": true
    },
    {
      "inputs": [
        {
          "internalType": "bytes32",
          "name": "role",
          "type": "bytes32"
        },
        {
          "internalType": "uint256",
          "name": "index",
          "type": "uint256"
        }
      ],
      "name": "getRoleMember",
      "outputs": [
        {
          "internalType": "address",
          "name": "",
          "type": "address"
        }
      ],
      "stateMutability": "view",
      "type": "function",
      "constant": true
    },
    {
      "inputs": [
        {
          "internalType": "bytes32",
          "name": "role",
          "type": "bytes32"
        }
      ],
      "name": "getRoleMemberCount",
      "outputs": [
        {
          "internalType": "uint256",
          "name": "",
          "type": "uint256"
        }
      ],
      "stateMutability": "view",
      "type": "function",
      "constant": true
    },
    {
      "inputs": [
        {
          "internalType": "bytes32",
          "name": "role",
          "type": "bytes32"
        },
        {
          "internalType": "address",
          "name": "account",
          "type": "address"
        }
      ],
      "name": "grantRole",
      "outputs": [],
      "stateMutability": "nonpayable",
      "type": "function"
    },
    {
      "inputs": [
        {
          "internalType": "bytes32",
          "name": "role",
          "type": "bytes32"
        },
        {
          "internalType": "address",
          "name": "account",
          "type": "address"
        }
      ],
      "name": "hasRole",
      "outputs": [
        {
          "internalType": "bool",
          "name": "",
          "type": "bool"
        }
      ],
      "stateMutability": "view",
      "type": "function",
      "constant": true
    },
    {
      "inputs": [
        {
          "internalType": "address",
          "name": "spender",
          "type": "address"
        },
        {
          "internalType": "uint256",
          "name": "addedValue",
          "type": "uint256"
        }
      ],
      "name": "increaseAllowance",
      "outputs": [
        {
          "internalType": "bool",
          "name": "",
          "type": "bool"
        }
      ],
      "stateMutability": "nonpayable",
      "type": "function"
    },
    {
      "inputs": [],
      "name": "initialTokensPerEth",
      "outputs": [
        {
          "internalType": "uint256",
          "name": "",
          "type": "uint256"
        }
      ],
      "stateMutability": "view",
      "type": "function",
      "constant": true
    },
    {
      "inputs": [],
      "name": "initializePair",
      "outputs": [],
      "stateMutability": "nonpayable",
      "type": "function"
    },
    {
      "inputs": [],
      "name": "initializeTwap",
      "outputs": [],
      "stateMutability": "nonpayable",
      "type": "function"
    },
    {
      "inputs": [],
      "name": "isThisToken0",
      "outputs": [
        {
          "internalType": "bool",
          "name": "",
          "type": "bool"
        }
      ],
      "stateMutability": "view",
      "type": "function",
      "constant": true
    },
    {
      "inputs": [],
      "name": "maxBurnPercent",
      "outputs": [
        {
          "internalType": "uint256",
          "name": "",
          "type": "uint256"
        }
      ],
      "stateMutability": "view",
      "type": "function",
      "constant": true
    },
    {
      "inputs": [],
      "name": "minBurnPercent",
      "outputs": [
        {
          "internalType": "uint256",
          "name": "",
          "type": "uint256"
        }
      ],
      "stateMutability": "view",
      "type": "function",
      "constant": true
    },
    {
      "inputs": [],
      "name": "minDeltaTwap",
      "outputs": [
        {
          "internalType": "uint256",
          "name": "",
          "type": "uint256"
        }
      ],
      "stateMutability": "view",
      "type": "function",
      "constant": true
    },
    {
      "inputs": [],
      "name": "name",
      "outputs": [
        {
          "internalType": "string",
          "name": "",
          "type": "string"
        }
      ],
      "stateMutability": "view",
      "type": "function",
      "constant": true
    },
    {
      "inputs": [],
      "name": "priceAverageLast",
      "outputs": [
        {
          "internalType": "uint256",
          "name": "",
          "type": "uint256"
        }
      ],
      "stateMutability": "view",
      "type": "function",
      "constant": true
    },
    {
      "inputs": [],
      "name": "priceCumulativeLast",
      "outputs": [
        {
          "internalType": "uint256",
          "name": "",
          "type": "uint256"
        }
      ],
      "stateMutability": "view",
      "type": "function",
      "constant": true
    },
    {
      "inputs": [
        {
          "internalType": "bytes32",
          "name": "role",
          "type": "bytes32"
        },
        {
          "internalType": "address",
          "name": "account",
          "type": "address"
        }
      ],
      "name": "renounceRole",
      "outputs": [],
      "stateMutability": "nonpayable",
      "type": "function"
    },
    {
      "inputs": [
        {
          "internalType": "bytes32",
          "name": "role",
          "type": "bytes32"
        },
        {
          "internalType": "address",
          "name": "account",
          "type": "address"
        }
      ],
      "name": "revokeRole",
      "outputs": [],
      "stateMutability": "nonpayable",
      "type": "function"
    },
    {
      "inputs": [
        {
          "internalType": "uint256",
          "name": "_minDeltaTwap",
          "type": "uint256"
        }
      ],
      "name": "setMinDeltaTwap",
      "outputs": [],
      "stateMutability": "nonpayable",
      "type": "function"
    },
    {
      "inputs": [
        {
          "internalType": "address",
          "name": "newUniswapV2Factory",
          "type": "address"
        },
        {
          "internalType": "address",
          "name": "newWeth",
          "type": "address"
        }
      ],
      "name": "setUniswapAddresses",
      "outputs": [],
      "stateMutability": "nonpayable",
      "type": "function"
    },
    {
      "inputs": [
        {
          "internalType": "address",
          "name": "_address",
          "type": "address"
        },
        {
          "internalType": "bool",
          "name": "_whitelisted",
          "type": "bool"
        }
      ],
      "name": "setWhitelistedSender",
      "outputs": [],
      "stateMutability": "nonpayable",
      "type": "function"
    },
    {
      "inputs": [],
      "name": "symbol",
      "outputs": [
        {
          "internalType": "string",
          "name": "",
          "type": "string"
        }
      ],
      "stateMutability": "view",
      "type": "function",
      "constant": true
    },
    {
      "inputs": [],
      "name": "totalSupply",
      "outputs": [
        {
          "internalType": "uint256",
          "name": "",
          "type": "uint256"
        }
      ],
      "stateMutability": "view",
      "type": "function",
      "constant": true
    },
    {
      "inputs": [
        {
          "internalType": "address",
          "name": "recipient",
          "type": "address"
        },
        {
          "internalType": "uint256",
          "name": "amount",
          "type": "uint256"
        }
      ],
      "name": "transfer",
      "outputs": [
        {
          "internalType": "bool",
          "name": "",
          "type": "bool"
        }
      ],
      "stateMutability": "nonpayable",
      "type": "function"
    },
    {
      "inputs": [
        {
          "internalType": "address",
          "name": "sender",
          "type": "address"
        },
        {
          "internalType": "address",
          "name": "recipient",
          "type": "address"
        },
        {
          "internalType": "uint256",
          "name": "amount",
          "type": "uint256"
        }
      ],
      "name": "transferFrom",
      "outputs": [
        {
          "internalType": "bool",
          "name": "",
          "type": "bool"
        }
      ],
      "stateMutability": "nonpayable",
      "type": "function"
    },
    {
      "inputs": [],
      "name": "uniswapPair",
      "outputs": [
        {
          "internalType": "address",
          "name": "",
          "type": "address"
        }
      ],
      "stateMutability": "view",
      "type": "function",
      "constant": true
    },
    {
      "inputs": [],
      "name": "uniswapV2Factory",
      "outputs": [
        {
          "internalType": "address",
          "name": "",
          "type": "address"
        }
      ],
      "stateMutability": "view",
      "type": "function",
      "constant": true
    },
    {
      "inputs": [
        {
          "internalType": "address",
          "name": "",
          "type": "address"
        }
      ],
      "name": "whitelistedSenders",
      "outputs": [
        {
          "internalType": "bool",
          "name": "",
          "type": "bool"
        }
      ],
      "stateMutability": "view",
      "type": "function",
      "constant": true
    },
    {
      "inputs": [
        {
          "internalType": "address",
          "name": "to",
          "type": "address"
        },
        {
          "internalType": "uint256",
          "name": "amount",
          "type": "uint256"
        }
      ],
      "name": "mint",
      "outputs": [],
      "stateMutability": "nonpayable",
      "type": "function"
    }
  ],
  "bytecode": "0x608060405260016013556934f086f3b33b684000006014553480156200002457600080fd5b50600460056200004c670de0b6b3a764000060de620001e360201b620011111790919060201c565b601454604080518082018252601a81527f43616265726e6574204672616e6320477261706520546f6b656e00000000000060208083019182528351808501909452600684526543475241504560d01b908401528151919291620000b29160049162000622565b508051620000c890600590602084019062000622565b50506006805460ff1916601217905550806200012b576040805162461bcd60e51b815260206004820152601560248201527f45524332304361707065643a2063617020697320300000000000000000000000604482015290519081900360640190fd5b60075561012c601155601280546001600160a01b0319163317905562000154600060016200024a565b600992909255600a5560085562000176600062000170620002c0565b620002c4565b620001a57f9f2df0fed2c77648de5860a4cc508cd0818c85b8b8a1ab4ceeef8d981c8956a662000170620002c0565b620001dd620001b3620002c0565b620001d7670de0b6b3a7640000601354620001e360201b620011111790919060201c565b620002d4565b620006ce565b600082620001f45750600062000244565b828202828482816200020257fe5b0414620002415760405162461bcd60e51b815260040180806020018281038252602181526020018062002e986021913960400191505060405180910390fd5b90505b92915050565b6012546001600160a01b03163314620002955760405162461bcd60e51b815260040180806020018281038252602681526020018062002eb96026913960400191505060405180910390fd5b6001600160a01b03919091166000908152600d60205260409020805460ff1916911515919091179055565b3390565b620002d08282620003e7565b5050565b6001600160a01b03821662000330576040805162461bcd60e51b815260206004820152601f60248201527f45524332303a206d696e7420746f20746865207a65726f206164647265737300604482015290519081900360640190fd5b6200033e6000838362000460565b6200035a816003546200047d60201b6200116a1790919060201c565b6003556001600160a01b0382166000908152600160209081526040909120546200038f9183906200116a6200047d821b17901c565b6001600160a01b03831660008181526001602090815260408083209490945583518581529351929391927fddf252ad1be2c89b69c2b068fc378daa952ba7f163c4a11628f55a4df523b3ef9281900390910190a35050565b6000828152602081815260409091206200040c918390620011c4620004d8821b17901c565b15620002d0576200041c620002c0565b6001600160a01b0316816001600160a01b0316837f2f8788117e7eff1d82e926ec794901d17c78024a50270940304540a733656f0d60405160405180910390a45050565b62000478838383620004ef60201b620011d91760201c565b505050565b60008282018381101562000241576040805162461bcd60e51b815260206004820152601b60248201527f536166654d6174683a206164646974696f6e206f766572666c6f770000000000604482015290519081900360640190fd5b600062000241836001600160a01b03841662000507565b620004788383836200055660201b620011e01760201c565b6000620005158383620005fe565b6200054d5750815460018181018455600084815260208082209093018490558454848252828601909352604090209190915562000244565b50600062000244565b6200056e8383836200047860201b62000d8f1760201c565b6001600160a01b03831662000478576200058762000616565b620005aa82620005966200061c565b6200047d60201b6200116a1790919060201c565b111562000478576040805162461bcd60e51b815260206004820152601960248201527f45524332304361707065643a2063617020657863656564656400000000000000604482015290519081900360640190fd5b60009081526001919091016020526040902054151590565b60075490565b60035490565b828054600181600116156101000203166002900490600052602060002090601f0160209004810192826200065a5760008555620006a5565b82601f106200067557805160ff1916838001178555620006a5565b82800160010185558215620006a5579182015b82811115620006a557825182559160200191906001019062000688565b50620006b3929150620006b7565b5090565b5b80821115620006b35760008155600101620006b8565b6127ba80620006de6000396000f3fe608060405234801561001057600080fd5b50600436106102995760003560e01c8063655cf04311610171578063ad5c4648116100d3578063cfc2d3d211610097578063dd62ed3e11610071578063dd62ed3e1461072d578063e379c31b1461075b578063ef4a64d41461076357610299565b8063cfc2d3d2146106f1578063d5391393146106f9578063d547741f1461070157610299565b8063ad5c46481461069b578063c3d74026146106a3578063c5700a02146106ab578063c816841b146106cc578063ca15c873146106d457610299565b806395d89b4111610135578063a9059cbb1161010f578063a9059cbb1461065f578063aaf3a6961461068b578063ab4d125f1461069357610299565b806395d89b4114610623578063a217fddf1461062b578063a457c2d71461063357610299565b8063655cf0431461056557806370a082311461058257806379cc6790146105a85780639010d07c146105d457806391d14854146105f757610299565b8063313ce5671161021a57806340c10f19116101de5780634fab9e4c116101b85780634fab9e4c1461053157806359d0f713146105395780635f8ee7631461055d57610299565b806340c10f19146104e057806342966c681461050c5780634539c4231461052957610299565b8063313ce5671461045a578063355274ea1461047857806336568abe1461048057806339509351146104ac5780633ed32b43146104d857610299565b8063248a9ca311610261578063248a9ca3146103b3578063272efc69146103d057806329923838146103f65780632f2ff15d146104265780632f43c1bc1461045257610299565b806306fdde031461029e578063095ea7b31461031b578063106f3b6e1461035b57806318160ddd1461037557806323b872dd1461037d575b600080fd5b6102a6610791565b6040805160208082528351818301528351919283929083019185019080838360005b838110156102e05781810151838201526020016102c8565b50505050905090810190601f16801561030d5780820380516001836020036101000a031916815260200191505b509250505060405180910390f35b6103476004803603604081101561033157600080fd5b506001600160a01b038135169060200135610827565b604080519115158252519081900360200190f35b610363610845565b60408051918252519081900360200190f35b61036361084b565b6103476004803603606081101561039357600080fd5b506001600160a01b03813581169160208101359091169060400135610851565b610363600480360360208110156103c957600080fd5b50356108d9565b610347600480360360208110156103e657600080fd5b50356001600160a01b03166108ee565b6104246004803603604081101561040c57600080fd5b506001600160a01b0381351690602001351515610903565b005b6104246004803603604081101561043c57600080fd5b50803590602001356001600160a01b0316610977565b6103636109e3565b6104626109e9565b6040805160ff9092168252519081900360200190f35b6103636109f2565b6104246004803603604081101561049657600080fd5b50803590602001356001600160a01b03166109f8565b610347600480360360408110156104c257600080fd5b506001600160a01b038135169060200135610a59565b610363610aa7565b610424600480360360408110156104f657600080fd5b506001600160a01b038135169060200135610aad565b6104246004803603602081101561052257600080fd5b5035610b1e565b610363610b32565b610424610be3565b610541610cbc565b604080516001600160a01b039092168252519081900360200190f35b610363610ccb565b6104246004803603602081101561057b57600080fd5b5035610cd1565b6103636004803603602081101561059857600080fd5b50356001600160a01b0316610d1f565b610424600480360360408110156105be57600080fd5b506001600160a01b038135169060200135610d3a565b610541600480360360408110156105ea57600080fd5b5080359060200135610d94565b6103476004803603604081101561060d57600080fd5b50803590602001356001600160a01b0316610dac565b6102a6610dc4565b610363610e25565b6103476004803603604081101561064957600080fd5b506001600160a01b038135169060200135610e2a565b6103476004803603604081101561067557600080fd5b506001600160a01b038135169060200135610e92565b610347610ea6565b610363610eb6565b610541610ebc565b610363610ecb565b6106b3610ed1565b6040805163ffffffff9092168252519081900360200190f35b610541610ee4565b610363600480360360208110156106ea57600080fd5b5035610ef3565b610363610f0a565b610363610f10565b6104246004803603604081101561071757600080fd5b50803590602001356001600160a01b0316610f34565b6103636004803603604081101561074357600080fd5b506001600160a01b0381358116916020013516610f8d565b610424610fb8565b6104246004803603604081101561077957600080fd5b506001600160a01b03813581169160200135166110d6565b60048054604080516020601f600260001961010060018816150201909516949094049384018190048102820181019092528281526060939092909183018282801561081d5780601f106107f25761010080835404028352916020019161081d565b820191906000526020600020905b81548152906001019060200180831161080057829003601f168201915b5050505050905090565b600061083b610834611266565b848461126a565b5060015b92915050565b600a5481565b60035490565b600061085e848484611356565b6108ce8461086a611266565b6108c985604051806060016040528060288152602001612655602891396001600160a01b038a166000908152600260205260408120906108a8611266565b6001600160a01b031681526020810191909152604001600020549190611361565b61126a565b5060015b9392505050565b60009081526020819052604090206002015490565b600d6020526000908152604090205460ff1681565b6012546001600160a01b0316331461094c5760405162461bcd60e51b815260040180806020018281038252602681526020018061270b6026913960400191505060405180910390fd5b6001600160a01b03919091166000908152600d60205260409020805460ff1916911515919091179055565b60008281526020819052604090206002015461099a90610995611266565b610dac565b6109d55760405162461bcd60e51b815260040180806020018281038252602f8152602001806124f7602f913960400191505060405180910390fd5b6109df82826113f8565b5050565b600f5481565b60065460ff1690565b60075490565b610a00611266565b6001600160a01b0316816001600160a01b031614610a4f5760405162461bcd60e51b815260040180806020018281038252602f815260200180612756602f913960400191505060405180910390fd5b6109df8282611461565b600061083b610a66611266565b846108c98560026000610a77611266565b6001600160a01b03908116825260208083019390935260409182016000908120918c16815292529020549061116a565b60085481565b610ad97f9f2df0fed2c77648de5860a4cc508cd0818c85b8b8a1ab4ceeef8d981c8956a6610995611266565b610b145760405162461bcd60e51b815260040180806020018281038252602981526020018061256a6029913960400191505060405180910390fd5b6109df82826114ca565b610b2f610b29611266565b826115bc565b50565b600e54600090819081908190610b50906001600160a01b03166116b8565b600e549295509093509150600160a81b810463ffffffff16820390600090600160a01b900460ff16610b825784610b84565b835b9050600060405180602001604052808463ffffffff16600f54850381610ba657fe5b046001600160e01b03168152509050610bcf610bca82670de0b6b3a76400006118bc565b611950565b6001600160901b0316965050505050505090565b6012546001600160a01b03163314610c2c5760405162461bcd60e51b815260040180806020018281038252602681526020018061270b6026913960400191505060405180910390fd5b600b546000908190610c489030906001600160a01b0316611957565b600e805460ff60a01b1916306001600160a01b0385811691909114600160a01b0291909117909155600c54929450909250610c8591168383611a35565b600e805473ffffffffffffffffffffffffffffffffffffffff19166001600160a01b0392831617908190556109df91166001610903565b600c546001600160a01b031681565b60105481565b6012546001600160a01b03163314610d1a5760405162461bcd60e51b815260040180806020018281038252602681526020018061270b6026913960400191505060405180910390fd5b601155565b6001600160a01b031660009081526001602052604090205490565b6000610d718260405180606001604052806024815260200161267d60249139610d6a86610d65611266565b610f8d565b9190611361565b9050610d8583610d7f611266565b8361126a565b610d8f83836115bc565b505050565b60008281526020819052604081206108d29083611b0d565b60008281526020819052604081206108d29083611b19565b60058054604080516020601f600260001961010060018816150201909516949094049384018190048102820181019092528281526060939092909183018282801561081d5780601f106107f25761010080835404028352916020019161081d565b600081565b600061083b610e37611266565b846108c9856040518060600160405280602581526020016127316025913960026000610e61611266565b6001600160a01b03908116825260208083019390935260409182016000908120918d16815292529020549190611361565b600061083b610e9f611266565b8484611356565b600e54600160a01b900460ff1681565b60115481565b600b546001600160a01b031681565b60095481565b600e54600160a81b900463ffffffff1681565b600e546001600160a01b031681565b600081815260208190526040812061083f90611b2e565b60105490565b7f9f2df0fed2c77648de5860a4cc508cd0818c85b8b8a1ab4ceeef8d981c8956a681565b600082815260208190526040902060020154610f5290610995611266565b610a4f5760405162461bcd60e51b81526004018080602001828103825260308152602001806126046030913960400191505060405180910390fd5b6001600160a01b03918216600090815260026020908152604080832093909416825291909152205490565b6012546001600160a01b031633146110015760405162461bcd60e51b815260040180806020018281038252602681526020018061270b6026913960400191505060405180910390fd5b600e54600160a81b900463ffffffff1615611063576040805162461bcd60e51b815260206004820152601860248201527f7477617020616c726561647920696e697469616c697a65640000000000000000604482015290519081900360640190fd5b600e546000908190819061107f906001600160a01b03166116b8565b9250925092506000600e60149054906101000a900460ff166110a157836110a3565b825b600e805463ffffffff909416600160a81b0263ffffffff60a81b199094169390931790925550600f555050600854601055565b600c80546001600160a01b0393841673ffffffffffffffffffffffffffffffffffffffff1991821617909155600b8054929093169116179055565b6000826111205750600061083f565b8282028284828161112d57fe5b04146108d25760405162461bcd60e51b81526004018080602001828103825260218152602001806126346021913960400191505060405180910390fd5b6000828201838110156108d2576040805162461bcd60e51b815260206004820152601b60248201527f536166654d6174683a206164646974696f6e206f766572666c6f770000000000604482015290519081900360640190fd5b60006108d2836001600160a01b038416611b39565b610d8f8383835b6111eb838383610d8f565b6001600160a01b038316610d8f576112016109f2565b6112138261120d61084b565b9061116a565b1115610d8f576040805162461bcd60e51b815260206004820152601960248201527f45524332304361707065643a2063617020657863656564656400000000000000604482015290519081900360640190fd5b3390565b6001600160a01b0383166112af5760405162461bcd60e51b81526004018080602001828103825260248152602001806126e76024913960400191505060405180910390fd5b6001600160a01b0382166112f45760405162461bcd60e51b81526004018080602001828103825260228152602001806125486022913960400191505060405180910390fd5b6001600160a01b03808416600081815260026020908152604080832094871680845294825291829020859055815185815291517f8c5be1e5ebec7d5bd14f71427d1e84f3dd0314c0f7b2291e5b200ac8c7c3b9259281900390910190a3505050565b610d8f838383611b83565b600081848411156113f05760405162461bcd60e51b81526004018080602001828103825283818151815260200191508051906020019080838360005b838110156113b557818101518382015260200161139d565b50505050905090810190601f1680156113e25780820380516001836020036101000a031916815260200191505b509250505060405180910390fd5b505050900390565b600082815260208190526040902061141090826111c4565b156109df5761141d611266565b6001600160a01b0316816001600160a01b0316837f2f8788117e7eff1d82e926ec794901d17c78024a50270940304540a733656f0d60405160405180910390a45050565b60008281526020819052604090206114799082611cd4565b156109df57611486611266565b6001600160a01b0316816001600160a01b0316837ff6391f5c32d9c69d2a47ea670b442974b53935d1edc7fd64eb21e047a839171b60405160405180910390a45050565b6001600160a01b038216611525576040805162461bcd60e51b815260206004820152601f60248201527f45524332303a206d696e7420746f20746865207a65726f206164647265737300604482015290519081900360640190fd5b61153160008383611ce9565b60035461153e908261116a565b6003556001600160a01b038216600090815260016020526040902054611564908261116a565b6001600160a01b03831660008181526001602090815260408083209490945583518581529351929391927fddf252ad1be2c89b69c2b068fc378daa952ba7f163c4a11628f55a4df523b3ef9281900390910190a35050565b6001600160a01b0382166116015760405162461bcd60e51b81526004018080602001828103825260218152602001806126a16021913960400191505060405180910390fd5b61160d82600083611ce9565b61164a81604051806060016040528060228152602001612526602291396001600160a01b0385166000908152600160205260409020549190611361565b6001600160a01b0383166000908152600160205260409020556003546116709082611cf4565b6003556040805182815290516000916001600160a01b038516917fddf252ad1be2c89b69c2b068fc378daa952ba7f163c4a11628f55a4df523b3ef9181900360200190a35050565b60008060006116c5611d51565b9050836001600160a01b0316635909c0d56040518163ffffffff1660e01b815260040160206040518083038186803b15801561170057600080fd5b505afa158015611714573d6000803e3d6000fd5b505050506040513d602081101561172a57600080fd5b505160408051635a3d549360e01b815290519194506001600160a01b03861691635a3d549391600480820192602092909190829003018186803b15801561177057600080fd5b505afa158015611784573d6000803e3d6000fd5b505050506040513d602081101561179a57600080fd5b505160408051630240bc6b60e21b81529051919350600091829182916001600160a01b03891691630902f1ac916004808301926060929190829003018186803b1580156117e657600080fd5b505afa1580156117fa573d6000803e3d6000fd5b505050506040513d606081101561181057600080fd5b5080516020820151604090920151909450909250905063ffffffff808216908516146118b25780840363ffffffff811661185d6dffffffffffffffffffffffffffff808616908716611d5b565b600001516001600160e01b031602870196508063ffffffff166118a0856dffffffffffffffffffffffffffff16856dffffffffffffffffffffffffffff16611d5b565b516001600160e01b0316029590950194505b5050509193909250565b6118c461248c565b60008215806118ea57505082516001600160e01b0316828102908382816118e757fe5b04145b61193b576040805162461bcd60e51b815260206004820152601960248201527f4669786564506f696e743a3a6d756c3a206f766572666c6f7700000000000000604482015290519081900360640190fd5b60408051602081019091529081529392505050565b5160701c90565b600080826001600160a01b0316846001600160a01b031614156119ab5760405162461bcd60e51b81526004018080602001828103825260258152602001806125b96025913960400191505060405180910390fd5b826001600160a01b0316846001600160a01b0316106119cb5782846119ce565b83835b90925090506001600160a01b038216611a2e576040805162461bcd60e51b815260206004820152601e60248201527f556e697377617056324c6962726172793a205a45524f5f414444524553530000604482015290519081900360640190fd5b9250929050565b6000806000611a448585611957565b604080516bffffffffffffffffffffffff19606094851b811660208084019190915293851b81166034830152825160288184030181526048830184528051908501207fff0000000000000000000000000000000000000000000000000000000000000060688401529a90941b9093166069840152607d8301989098527f0b7aab41505a582191822f1cd162ee70058b779aa24cc1aea78f0670d0fb8195609d808401919091528851808403909101815260bd909201909752805196019590952095945050505050565b60006108d28383611ed2565b60006108d2836001600160a01b038416611f36565b600061083f82611f4e565b6000611b458383611f36565b611b7b5750815460018181018455600084815260208082209093018490558454848252828601909352604090209190915561083f565b50600061083f565b611b8c83611f52565b8015611ba55750600e546001600160a01b038481169116145b15611bba57611bb5838383611f70565b610d8f565b611bc382611f52565b8015611bdd5750600e546001600160a01b03838116911614155b15611bed57611bb5838383611f70565b600e546001600160a01b031615611cc957670de0b6b3a76400006000611c116120cd565b90506000611c2a8360095461111190919063ffffffff16565b9050600854821015611c9957633b9aca009250611c71611c6783611c61670de0b6b3a764000060085461111190919063ffffffff16565b90612209565b611c618386611111565b90506000600a84600a540281611c8357fe5b049050808211611c935780611c95565b815b9150505b6000611cac84611c616064818987611111565b9050611cb887826115bc565b611cc28582611cf4565b9450505050505b610d8f838383611f70565b60006108d2836001600160a01b038416612270565b610d8f8383836111d9565b600082821115611d4b576040805162461bcd60e51b815260206004820152601e60248201527f536166654d6174683a207375627472616374696f6e206f766572666c6f770000604482015290519081900360640190fd5b50900390565b63ffffffff421690565b611d6361249f565b60008211611da25760405162461bcd60e51b81526004018080602001828103825260268152602001806125de6026913960400191505060405180910390fd5b82611dbc575060408051602081019091526000815261083f565b6001600160901b038311611e5857600082607085901b81611dd957fe5b0490506001600160e01b03811115611e38576040805162461bcd60e51b815260206004820152601e60248201527f4669786564506f696e743a3a6672616374696f6e3a206f766572666c6f770000604482015290519081900360640190fd5b6040518060200160405280826001600160e01b031681525091505061083f565b6000611e74846e01000000000000000000000000000085612336565b90506001600160e01b03811115611e38576040805162461bcd60e51b815260206004820152601e60248201527f4669786564506f696e743a3a6672616374696f6e3a206f766572666c6f770000604482015290519081900360640190fd5b81546000908210611f145760405162461bcd60e51b81526004018080602001828103825260228152602001806124b26022913960400191505060405180910390fd5b826000018281548110611f2357fe5b9060005260206000200154905092915050565b60009081526001919091016020526040902054151590565b5490565b6001600160a01b03166000908152600d602052604090205460ff1690565b6001600160a01b038316611fb55760405162461bcd60e51b81526004018080602001828103825260258152602001806126c26025913960400191505060405180910390fd5b6001600160a01b038216611ffa5760405162461bcd60e51b81526004018080602001828103825260238152602001806124d46023913960400191505060405180910390fd5b612005838383611ce9565b61204281604051806060016040528060268152602001612593602691396001600160a01b0386166000908152600160205260409020549190611361565b6001600160a01b038085166000908152600160205260408082209390935590841681522054612071908261116a565b6001600160a01b0380841660008181526001602090815260409182902094909455805185815290519193928716927fddf252ad1be2c89b69c2b068fc378daa952ba7f163c4a11628f55a4df523b3ef92918290030190a3505050565b600e546000908190819081906120eb906001600160a01b03166116b8565b600e54601154939650919450925063ffffffff600160a81b909104811683039190821611156121fd57600e54600090600160a01b900460ff1661212e5784612130565b835b9050600060405180602001604052808463ffffffff16600f5485038161215257fe5b046001600160e01b03169052600f839055600e805463ffffffff60a81b1916600160a81b63ffffffff8816021790559050612198610bca82670de0b6b3a76400006118bc565b6001600160901b03166010819055600f54600e5460408051928352600160a81b90910463ffffffff1660208301528181019290925290517f9cfe07a59ebb9a772e1fee2abd40b53001de7c2f0b2e713de333f564118c32c4916060908290030190a150505b60105494505050505090565b600080821161225f576040805162461bcd60e51b815260206004820152601a60248201527f536166654d6174683a206469766973696f6e206279207a65726f000000000000604482015290519081900360640190fd5b81838161226857fe5b049392505050565b6000818152600183016020526040812054801561232c57835460001980830191908101906000908790839081106122a357fe5b90600052602060002001549050808760000184815481106122c057fe5b6000918252602080832090910192909255828152600189810190925260409020908401905586548790806122f057fe5b6001900381819060005260206000200160009055905586600101600087815260200190815260200160002060009055600194505050505061083f565b600091505061083f565b600080600061234586866123ef565b915091506000848061235357fe5b868809905082811115612367576001820391505b9182900391816123855784838161237a57fe5b0493505050506108d2565b8482106123d9576040805162461bcd60e51b815260206004820152601a60248201527f46756c6c4d6174683a2046554c4c4449565f4f564552464c4f57000000000000604482015290519081900360640190fd5b6123e483838761241c565b979650505050505050565b6000808060001984860990508385029250828103915082811015612414576001820391505b509250929050565b6000818103821680838161242c57fe5b04925080858161243857fe5b04945080816000038161244757fe5b60028581038087028203028087028203028087028203028087028203028087028203028087028203029586029003909402930460010193909302939093010292915050565b6040518060200160405280600081525090565b6040805160208101909152600081529056fe456e756d657261626c655365743a20696e646578206f7574206f6620626f756e647345524332303a207472616e7366657220746f20746865207a65726f2061646472657373416363657373436f6e74726f6c3a2073656e646572206d75737420626520616e2061646d696e20746f206772616e7445524332303a206275726e20616d6f756e7420657863656564732062616c616e636545524332303a20617070726f766520746f20746865207a65726f20616464726573734772617065546f6b656e3a206d7573742068617665206d696e74657220726f6c6520746f206d696e7445524332303a207472616e7366657220616d6f756e7420657863656564732062616c616e6365556e697377617056324c6962726172793a204944454e544943414c5f4144445245535345534669786564506f696e743a3a6672616374696f6e3a206469766973696f6e206279207a65726f416363657373436f6e74726f6c3a2073656e646572206d75737420626520616e2061646d696e20746f207265766f6b65536166654d6174683a206d756c7469706c69636174696f6e206f766572666c6f7745524332303a207472616e7366657220616d6f756e74206578636565647320616c6c6f77616e636545524332303a206275726e20616d6f756e74206578636565647320616c6c6f77616e636545524332303a206275726e2066726f6d20746865207a65726f206164647265737345524332303a207472616e736665722066726f6d20746865207a65726f206164647265737345524332303a20617070726f76652066726f6d20746865207a65726f20616464726573734665654f6e5472616e736665723a2063616c6c6572206973206e6f7420746865206f776e657245524332303a2064656372656173656420616c6c6f77616e63652062656c6f77207a65726f416363657373436f6e74726f6c3a2063616e206f6e6c792072656e6f756e636520726f6c657320666f722073656c66a2646970667358221220c07fe9d438d9818435a8756b431bb66ff89986fe01a3d40aa72edc82a4c5494464736f6c63430007060033536166654d6174683a206d756c7469706c69636174696f6e206f766572666c6f774665654f6e5472616e736665723a2063616c6c6572206973206e6f7420746865206f776e6572",
  "immutableReferences": {},
  "source": "// SPDX-License-Identifier: MIT\n\npragma solidity ^0.7.6;\n\nimport \"@openzeppelin/contracts/access/AccessControl.sol\";\nimport \"@openzeppelin/contracts/GSN/Context.sol\";\nimport \"@openzeppelin/contracts/token/ERC20/ERC20.sol\";\nimport \"@openzeppelin/contracts/token/ERC20/ERC20Burnable.sol\";\nimport \"@openzeppelin/contracts/token/ERC20/ERC20Capped.sol\";\nimport \"./UniBurnOnTransfer.sol\";\n\ncontract GrapeToken is\n    Context,\n    AccessControl,\n    ERC20Burnable,\n    ERC20Capped,\n    UniBurnOnTransfer\n{\n    using SafeMath for uint256;\n    bytes32 public constant MINTER_ROLE = keccak256(\"MINTER_ROLE\");\n\n    string constant TOKEN_NAME = \"Cabernet Franc Grape Token\";\n    string constant TOKEN_SYMBOL = \"CGRAPE\";\n    uint256 PRE_MINE_SUPPLY = 1; // \n    uint256 capped = 250000000000000000000000; // 250000\n\n    constructor() ERC20(TOKEN_NAME, TOKEN_SYMBOL) ERC20Capped(capped) UniBurnOnTransfer(uint256(4), uint256(5), uint256(222).mul(10**18)) {\n        // setting initial roles\n        _setupRole(DEFAULT_ADMIN_ROLE, _msgSender());\n        _setupRole(MINTER_ROLE, _msgSender());\n\n        // miniting pre-mine\n        _mint(_msgSender(), PRE_MINE_SUPPLY.mul(10**18));\n    }\n\n    function mint(address to, uint256 amount) external virtual {\n        require(\n            hasRole(MINTER_ROLE, _msgSender()),\n            \"GrapeToken: must have minter role to mint\"\n        );\n        _mint(to, amount);\n    }\n\n    function _transfer(\n        address sender,\n        address recipient,\n        uint256 amount\n    ) internal virtual override(ERC20, UniBurnOnTransfer) {\n        super._transfer(sender, recipient, amount);\n    }\n\n    function _beforeTokenTransfer(\n        address from,\n        address to,\n        uint256 amount\n    ) internal virtual override(ERC20, ERC20Capped, UniBurnOnTransfer) {\n        super._beforeTokenTransfer(from, to, amount);\n    }\n}\n",
  "sourcePath": "/home/rekard0/Documents/WORK/cloning-defi/wine.finance/contract-uniswap/contracts/GrapeToken.sol",
  "compiler": {
    "name": "solc",
    "version": "0.7.6+commit.7338295f.Emscripten.clang"
  },
  "schemaVersion": "3.3.3",
  "updatedAt": "2021-03-20T21:19:18.366Z",
  "networkType": "ethereum",
  "devdoc": {
    "kind": "dev",
    "methods": {
      "allowance(address,address)": {
        "details": "See {IERC20-allowance}."
      },
      "approve(address,uint256)": {
        "details": "See {IERC20-approve}. Requirements: - `spender` cannot be the zero address."
      },
      "balanceOf(address)": {
        "details": "See {IERC20-balanceOf}."
      },
      "burn(uint256)": {
        "details": "Destroys `amount` tokens from the caller. See {ERC20-_burn}."
      },
      "burnFrom(address,uint256)": {
        "details": "Destroys `amount` tokens from `account`, deducting from the caller's allowance. See {ERC20-_burn} and {ERC20-allowance}. Requirements: - the caller must have allowance for ``accounts``'s tokens of at least `amount`."
      },
      "cap()": {
        "details": "Returns the cap on the token's total supply."
      },
      "decimals()": {
        "details": "Returns the number of decimals used to get its user representation. For example, if `decimals` equals `2`, a balance of `505` tokens should be displayed to a user as `5,05` (`505 / 10 ** 2`). Tokens usually opt for a value of 18, imitating the relationship between Ether and Wei. This is the value {ERC20} uses, unless {_setupDecimals} is called. NOTE: This information is only used for _display_ purposes: it in no way affects any of the arithmetic of the contract, including {IERC20-balanceOf} and {IERC20-transfer}."
      },
      "decreaseAllowance(address,uint256)": {
        "details": "Atomically decreases the allowance granted to `spender` by the caller. This is an alternative to {approve} that can be used as a mitigation for problems described in {IERC20-approve}. Emits an {Approval} event indicating the updated allowance. Requirements: - `spender` cannot be the zero address. - `spender` must have allowance for the caller of at least `subtractedValue`."
      },
      "getRoleAdmin(bytes32)": {
        "details": "Returns the admin role that controls `role`. See {grantRole} and {revokeRole}. To change a role's admin, use {_setRoleAdmin}."
      },
      "getRoleMember(bytes32,uint256)": {
        "details": "Returns one of the accounts that have `role`. `index` must be a value between 0 and {getRoleMemberCount}, non-inclusive. Role bearers are not sorted in any particular way, and their ordering may change at any point. WARNING: When using {getRoleMember} and {getRoleMemberCount}, make sure you perform all queries on the same block. See the following https://forum.openzeppelin.com/t/iterating-over-elements-on-enumerableset-in-openzeppelin-contracts/2296[forum post] for more information."
      },
      "getRoleMemberCount(bytes32)": {
        "details": "Returns the number of accounts that have `role`. Can be used together with {getRoleMember} to enumerate all bearers of a role."
      },
      "grantRole(bytes32,address)": {
        "details": "Grants `role` to `account`. If `account` had not been already granted `role`, emits a {RoleGranted} event. Requirements: - the caller must have ``role``'s admin role."
      },
      "hasRole(bytes32,address)": {
        "details": "Returns `true` if `account` has been granted `role`."
      },
      "increaseAllowance(address,uint256)": {
        "details": "Atomically increases the allowance granted to `spender` by the caller. This is an alternative to {approve} that can be used as a mitigation for problems described in {IERC20-approve}. Emits an {Approval} event indicating the updated allowance. Requirements: - `spender` cannot be the zero address."
      },
      "initializeTwap()": {
        "details": "Initializes the TWAP cumulative values for the burn curve."
      },
      "name()": {
        "details": "Returns the name of the token."
      },
      "renounceRole(bytes32,address)": {
        "details": "Revokes `role` from the calling account. Roles are often managed via {grantRole} and {revokeRole}: this function's purpose is to provide a mechanism for accounts to lose their privileges if they are compromised (such as when a trusted device is misplaced). If the calling account had been granted `role`, emits a {RoleRevoked} event. Requirements: - the caller must be `account`."
      },
      "revokeRole(bytes32,address)": {
        "details": "Revokes `role` from `account`. If `account` had been granted `role`, emits a {RoleRevoked} event. Requirements: - the caller must have ``role``'s admin role."
      },
      "setMinDeltaTwap(uint256)": {
        "details": "Min time elapsed before twap is updated."
      },
      "setWhitelistedSender(address,bool)": {
        "details": "Sets a whitelisted sender (liquidity sources mostly)."
      },
      "symbol()": {
        "details": "Returns the symbol of the token, usually a shorter version of the name."
      },
      "totalSupply()": {
        "details": "See {IERC20-totalSupply}."
      },
      "transfer(address,uint256)": {
        "details": "See {IERC20-transfer}. Requirements: - `recipient` cannot be the zero address. - the caller must have a balance of at least `amount`."
      },
      "transferFrom(address,address,uint256)": {
        "details": "See {IERC20-transferFrom}. Emits an {Approval} event indicating the updated allowance. This is not required by the EIP. See the note at the beginning of {ERC20}. Requirements: - `sender` and `recipient` cannot be the zero address. - `sender` must have a balance of at least `amount`. - the caller must have allowance for ``sender``'s tokens of at least `amount`."
      }
    },
    "version": 1
  },
  "userdoc": {
    "kind": "user",
    "methods": {
      "WETH()": {
        "notice": "WETH token address"
      },
      "blockTimestampLast()": {
        "notice": "last TWAP update time"
      },
      "initialTokensPerEth()": {
        "notice": "uniswap listing rate"
      },
      "isThisToken0()": {
        "notice": "Whether or not this token is first in uniswap token<>ETH pair"
      },
      "maxBurnPercent()": {
        "notice": "max burn percentage to teach virgins what happens when they sell too early"
      },
      "minBurnPercent()": {
        "notice": "min burn percentage"
      },
      "minDeltaTwap()": {
        "notice": "TWAP min delta (10-min)"
      },
      "priceAverageLast()": {
        "notice": "last TWAP average price"
      },
      "priceCumulativeLast()": {
        "notice": "last TWAP cumulative price"
      },
      "uniswapPair()": {
        "notice": "uniswap pair for Token/ETH"
      },
      "uniswapV2Factory()": {
        "notice": "self-explanatory"
      },
      "whitelistedSenders(address)": {
        "notice": "liquidity sources (e.g. UniswapV2Router)"
      }
    },
    "version": 1
  }
}