{
  "contractName": "Stake",
  "abi": [
    {
      "inputs": [],
      "stateMutability": "nonpayable",
      "type": "constructor"
    },
    {
      "anonymous": false,
      "inputs": [
        {
          "indexed": true,
          "internalType": "address",
          "name": "user",
          "type": "address"
        },
        {
          "indexed": false,
          "internalType": "uint256",
          "name": "reward",
          "type": "uint256"
        }
      ],
      "name": "Rewards",
      "type": "event"
    },
    {
      "anonymous": false,
      "inputs": [
        {
          "indexed": true,
          "internalType": "bytes32",
          "name": "role",
          "type": "bytes32"
        },
        {
          "indexed": true,
          "internalType": "bytes32",
          "name": "previousAdminRole",
          "type": "bytes32"
        },
        {
          "indexed": true,
          "internalType": "bytes32",
          "name": "newAdminRole",
          "type": "bytes32"
        }
      ],
      "name": "RoleAdminChanged",
      "type": "event"
    },
    {
      "anonymous": false,
      "inputs": [
        {
          "indexed": true,
          "internalType": "bytes32",
          "name": "role",
          "type": "bytes32"
        },
        {
          "indexed": true,
          "internalType": "address",
          "name": "account",
          "type": "address"
        },
        {
          "indexed": true,
          "internalType": "address",
          "name": "sender",
          "type": "address"
        }
      ],
      "name": "RoleGranted",
      "type": "event"
    },
    {
      "anonymous": false,
      "inputs": [
        {
          "indexed": true,
          "internalType": "bytes32",
          "name": "role",
          "type": "bytes32"
        },
        {
          "indexed": true,
          "internalType": "address",
          "name": "account",
          "type": "address"
        },
        {
          "indexed": true,
          "internalType": "address",
          "name": "sender",
          "type": "address"
        }
      ],
      "name": "RoleRevoked",
      "type": "event"
    },
    {
      "anonymous": false,
      "inputs": [
        {
          "indexed": true,
          "internalType": "address",
          "name": "user",
          "type": "address"
        },
        {
          "indexed": false,
          "internalType": "uint256",
          "name": "poolToken",
          "type": "uint256"
        },
        {
          "indexed": false,
          "internalType": "uint256",
          "name": "boostToken",
          "type": "uint256"
        }
      ],
      "name": "Staked",
      "type": "event"
    },
    {
      "anonymous": false,
      "inputs": [
        {
          "indexed": true,
          "internalType": "address",
          "name": "user",
          "type": "address"
        },
        {
          "indexed": false,
          "internalType": "uint256",
          "name": "poolToken",
          "type": "uint256"
        },
        {
          "indexed": false,
          "internalType": "uint256",
          "name": "boostToken",
          "type": "uint256"
        }
      ],
      "name": "unStaked",
      "type": "event"
    },
    {
      "inputs": [],
      "name": "DEFAULT_ADMIN_ROLE",
      "outputs": [
        {
          "internalType": "bytes32",
          "name": "",
          "type": "bytes32"
        }
      ],
      "stateMutability": "view",
      "type": "function",
      "constant": true
    },
    {
      "inputs": [],
      "name": "MODERATOR_ROLE",
      "outputs": [
        {
          "internalType": "bytes32",
          "name": "",
          "type": "bytes32"
        }
      ],
      "stateMutability": "view",
      "type": "function",
      "constant": true
    },
    {
      "inputs": [],
      "name": "boostScaleFactor",
      "outputs": [
        {
          "internalType": "uint256",
          "name": "",
          "type": "uint256"
        }
      ],
      "stateMutability": "view",
      "type": "function",
      "constant": true
    },
    {
      "inputs": [
        {
          "internalType": "bytes32",
          "name": "role",
          "type": "bytes32"
        }
      ],
      "name": "getRoleAdmin",
      "outputs": [
        {
          "internalType": "bytes32",
          "name": "",
          "type": "bytes32"
        }
      ],
      "stateMutability": "view",
      "type": "function",
      "constant": true
    },
    {
      "inputs": [
        {
          "internalType": "bytes32",
          "name": "role",
          "type": "bytes32"
        },
        {
          "internalType": "uint256",
          "name": "index",
          "type": "uint256"
        }
      ],
      "name": "getRoleMember",
      "outputs": [
        {
          "internalType": "address",
          "name": "",
          "type": "address"
        }
      ],
      "stateMutability": "view",
      "type": "function",
      "constant": true
    },
    {
      "inputs": [
        {
          "internalType": "bytes32",
          "name": "role",
          "type": "bytes32"
        }
      ],
      "name": "getRoleMemberCount",
      "outputs": [
        {
          "internalType": "uint256",
          "name": "",
          "type": "uint256"
        }
      ],
      "stateMutability": "view",
      "type": "function",
      "constant": true
    },
    {
      "inputs": [
        {
          "internalType": "bytes32",
          "name": "role",
          "type": "bytes32"
        },
        {
          "internalType": "address",
          "name": "account",
          "type": "address"
        }
      ],
      "name": "grantRole",
      "outputs": [],
      "stateMutability": "nonpayable",
      "type": "function"
    },
    {
      "inputs": [
        {
          "internalType": "bytes32",
          "name": "role",
          "type": "bytes32"
        },
        {
          "internalType": "address",
          "name": "account",
          "type": "address"
        }
      ],
      "name": "hasRole",
      "outputs": [
        {
          "internalType": "bool",
          "name": "",
          "type": "bool"
        }
      ],
      "stateMutability": "view",
      "type": "function",
      "constant": true
    },
    {
      "inputs": [
        {
          "internalType": "bytes32",
          "name": "role",
          "type": "bytes32"
        },
        {
          "internalType": "address",
          "name": "account",
          "type": "address"
        }
      ],
      "name": "renounceRole",
      "outputs": [],
      "stateMutability": "nonpayable",
      "type": "function"
    },
    {
      "inputs": [
        {
          "internalType": "bytes32",
          "name": "role",
          "type": "bytes32"
        },
        {
          "internalType": "address",
          "name": "account",
          "type": "address"
        }
      ],
      "name": "revokeRole",
      "outputs": [],
      "stateMutability": "nonpayable",
      "type": "function"
    },
    {
      "inputs": [],
      "name": "stakeRewardTokenContractAddress",
      "outputs": [
        {
          "internalType": "address",
          "name": "",
          "type": "address"
        }
      ],
      "stateMutability": "view",
      "type": "function",
      "constant": true
    },
    {
      "inputs": [
        {
          "internalType": "address",
          "name": "",
          "type": "address"
        }
      ],
      "name": "stakedBalances",
      "outputs": [
        {
          "internalType": "uint256",
          "name": "lastBlockChecked",
          "type": "uint256"
        },
        {
          "internalType": "uint256",
          "name": "rewards",
          "type": "uint256"
        },
        {
          "internalType": "uint256",
          "name": "tokenStaked",
          "type": "uint256"
        },
        {
          "internalType": "uint256",
          "name": "boostTokenStaked",
          "type": "uint256"
        }
      ],
      "stateMutability": "view",
      "type": "function",
      "constant": true
    },
    {
      "inputs": [],
      "name": "stakedBoostTokenContractAddress",
      "outputs": [
        {
          "internalType": "address",
          "name": "",
          "type": "address"
        }
      ],
      "stateMutability": "view",
      "type": "function",
      "constant": true
    },
    {
      "inputs": [],
      "name": "stakedTokenContractAddress",
      "outputs": [
        {
          "internalType": "address",
          "name": "",
          "type": "address"
        }
      ],
      "stateMutability": "view",
      "type": "function",
      "constant": true
    },
    {
      "inputs": [],
      "name": "totalBoostTokenStaked",
      "outputs": [
        {
          "internalType": "uint256",
          "name": "",
          "type": "uint256"
        }
      ],
      "stateMutability": "view",
      "type": "function",
      "constant": true
    },
    {
      "inputs": [],
      "name": "totalTokenStaked",
      "outputs": [
        {
          "internalType": "uint256",
          "name": "",
          "type": "uint256"
        }
      ],
      "stateMutability": "view",
      "type": "function",
      "constant": true
    },
    {
      "inputs": [
        {
          "internalType": "uint256",
          "name": "newFactor",
          "type": "uint256"
        }
      ],
      "name": "setBoostScaleFactor",
      "outputs": [],
      "stateMutability": "nonpayable",
      "type": "function"
    },
    {
      "inputs": [
        {
          "internalType": "address",
          "name": "origen",
          "type": "address"
        }
      ],
      "name": "setStakeTokenContractAddress",
      "outputs": [],
      "stateMutability": "nonpayable",
      "type": "function"
    },
    {
      "inputs": [
        {
          "internalType": "address",
          "name": "origen",
          "type": "address"
        }
      ],
      "name": "setStakedBoostTokenContractAddress",
      "outputs": [],
      "stateMutability": "nonpayable",
      "type": "function"
    },
    {
      "inputs": [
        {
          "internalType": "address",
          "name": "destination",
          "type": "address"
        }
      ],
      "name": "setStakeRewardTokenContractAddress",
      "outputs": [],
      "stateMutability": "nonpayable",
      "type": "function"
    },
    {
      "inputs": [
        {
          "internalType": "address",
          "name": "account",
          "type": "address"
        }
      ],
      "name": "myRewardsBalance",
      "outputs": [
        {
          "internalType": "uint256",
          "name": "estimatedReward",
          "type": "uint256"
        }
      ],
      "stateMutability": "view",
      "type": "function",
      "constant": true
    },
    {
      "inputs": [
        {
          "internalType": "uint256",
          "name": "poolTokenAmount",
          "type": "uint256"
        },
        {
          "internalType": "uint256",
          "name": "boostTokenAmount",
          "type": "uint256"
        }
      ],
      "name": "stake",
      "outputs": [],
      "stateMutability": "nonpayable",
      "type": "function"
    },
    {
      "inputs": [
        {
          "internalType": "uint256",
          "name": "poolTokenAmount",
          "type": "uint256"
        },
        {
          "internalType": "uint256",
          "name": "boostTokenAmount",
          "type": "uint256"
        }
      ],
      "name": "unStake",
      "outputs": [],
      "stateMutability": "nonpayable",
      "type": "function"
    },
    {
      "inputs": [],
      "name": "claimReward",
      "outputs": [],
      "stateMutability": "nonpayable",
      "type": "function"
    }
  ],
  "bytecode": "0x60806040523480156200001157600080fd5b506200002860006200002262000062565b62000066565b620000577f71f3d55856e4058ed06ee057d79ada615f65cdf5f9ee88181b914225088f834f6200002262000062565b600a60065562000176565b3390565b62000072828262000076565b5050565b6000828152602081815260409091206200009b9183906200102f620000ef821b17901c565b156200007257620000ab62000062565b6001600160a01b0316816001600160a01b0316837f2f8788117e7eff1d82e926ec794901d17c78024a50270940304540a733656f0d60405160405180910390a45050565b600062000106836001600160a01b0384166200010f565b90505b92915050565b60006200011d83836200015e565b620001555750815460018181018455600084815260208082209093018490558454848252828601909352604090209190915562000109565b50600062000109565b60009081526001919091016020526040902054151590565b611a0c80620001866000396000f3fe608060405234801561001057600080fd5b50600436106101985760003560e01c80638b8d67d5116100e3578063b88a802f1161008c578063d547741f11610066578063d547741f14610423578063d5bc85191461044f578063e57c5d091461047557610198565b8063b88a802f146103f6578063c1726f7f146103fe578063ca15c8731461040657610198565b80639c1c295d116100bd5780639c1c295d146103a2578063a217fddf146103c8578063a57306dc146103d057610198565b80638b8d67d5146103375780639010d07c1461033f57806391d148541461036257610198565b80632f2ff15d11610145578063372caeb81161011f578063372caeb8146102e9578063797669c91461030c5780637b0472f01461031457610198565b80632f2ff15d14610289578063341910d8146102b557806336568abe146102bd57610198565b8063248a9ca311610176578063248a9ca31461022e578063291d476e1461025d5780632e559d791461028157610198565b80630f9d1bd81461019d5780631460fa87146101bc57806318a7da2714610208575b600080fd5b6101ba600480360360208110156101b357600080fd5b503561047d565b005b6101e2600480360360208110156101d257600080fd5b50356001600160a01b03166104ee565b604080519485526020850193909352838301919091526060830152519081900360800190f35b6101ba6004803603602081101561021e57600080fd5b50356001600160a01b0316610515565b61024b6004803603602081101561024457600080fd5b503561059e565b60408051918252519081900360200190f35b6102656105b6565b604080516001600160a01b039092168252519081900360200190f35b61024b6105c5565b6101ba6004803603604081101561029f57600080fd5b50803590602001356001600160a01b03166105cb565b610265610632565b6101ba600480360360408110156102d357600080fd5b50803590602001356001600160a01b0316610641565b6101ba600480360360408110156102ff57600080fd5b50803590602001356106a2565b61024b6108d4565b6101ba6004803603604081101561032a57600080fd5b50803590602001356108f8565b61024b610b2c565b6102656004803603604081101561035557600080fd5b5080359060200135610b32565b61038e6004803603604081101561037857600080fd5b50803590602001356001600160a01b0316610b53565b604080519115158252519081900360200190f35b6101ba600480360360208110156103b857600080fd5b50356001600160a01b0316610b6b565b61024b610bf4565b61024b600480360360208110156103e657600080fd5b50356001600160a01b0316610bf9565b6101ba610d0f565b61024b610f21565b61024b6004803603602081101561041c57600080fd5b5035610f27565b6101ba6004803603604081101561043957600080fd5b50803590602001356001600160a01b0316610f3e565b6101ba6004803603602081101561046557600080fd5b50356001600160a01b0316610f97565b610265611020565b6104ae7f71f3d55856e4058ed06ee057d79ada615f65cdf5f9ee88181b914225088f834f6104a9611044565b610b53565b6104e95760405162461bcd60e51b81526004018080602001828103825260358152602001806119276035913960400191505060405180910390fd5b600655565b60076020526000908152604090208054600182015460028301546003909301549192909184565b6105417f71f3d55856e4058ed06ee057d79ada615f65cdf5f9ee88181b914225088f834f6104a9611044565b61057c5760405162461bcd60e51b81526004018080602001828103825260358152602001806119276035913960400191505060405180910390fd5b600580546001600160a01b0319166001600160a01b0392909216919091179055565b6000818152602081905260409020600201545b919050565b6003546001600160a01b031681565b60025481565b6000828152602081905260409020600201546105e9906104a9611044565b6106245760405162461bcd60e51b815260040180806020018281038252602f815260200180611881602f913960400191505060405180910390fd5b61062e8282611048565b5050565b6005546001600160a01b031681565b610649611044565b6001600160a01b0316816001600160a01b0316146106985760405162461bcd60e51b815260040180806020018281038252602f8152602001806119a8602f913960400191505060405180910390fd5b61062e82826110b1565b6106aa611044565b6001600160a01b038116600090815260076020526040902054431115610755576001600160a01b0381166000908152600760205260408120546106ee90439061111a565b6001600160a01b038316600090815260076020526040902060020154909150156107385761071b82610bf9565b6001600160a01b0383166000908152600760205260409020600101555b506001600160a01b03811660009081526007602052604090204390555b600154610762908361111a565b600155600254610772908461111a565b6002556107a88260076000610785611044565b6001600160a01b031681526020810191909152604001600020600301549061111a565b600760006107b4611044565b6001600160a01b03166001600160a01b031681526020019081526020016000206003018190555061080e83600760006107eb611044565b6001600160a01b031681526020810191909152604001600020600201549061111a565b6007600061081a611044565b6001600160a01b03168152602081019190915260400160002060020155811561085b5761085b610848611044565b6004546001600160a01b03169084611177565b821561087f5761087f61086c611044565b6003546001600160a01b03169085611177565b610887611044565b6001600160a01b03167fe54700985ffd0973f2d7efd700eb74fa18d4e63f5f6789bb06a67d3c532d58fe8484604051808381526020018281526020019250505060405180910390a2505050565b7f71f3d55856e4058ed06ee057d79ada615f65cdf5f9ee88181b914225088f834f81565b610900611044565b6001600160a01b0381166000908152600760205260409020544311156109ab576001600160a01b03811660009081526007602052604081205461094490439061111a565b6001600160a01b0383166000908152600760205260409020600201549091501561098e5761097182610bf9565b6001600160a01b0383166000908152600760205260409020600101555b506001600160a01b03811660009081526007602052604090204390555b6001546109b890836111ce565b6001556002546109c890846111ce565b6002556109fe83600760006109db611044565b6001600160a01b03168152602081019190915260400160002060020154906111ce565b60076000610a0a611044565b6001600160a01b03166001600160a01b0316815260200190815260200160002060020181905550610a648260076000610a41611044565b6001600160a01b03168152602081019190915260400160002060030154906111ce565b60076000610a70611044565b6001600160a01b031681526020810191909152604001600020600301558115610ab257610ab2610a9e611044565b6004546001600160a01b0316903085611228565b8215610ad757610ad7610ac3611044565b6003546001600160a01b0316903086611228565b610adf611044565b6001600160a01b03167f1449c6dd7851abc30abf37f57715f492010519147cc2652fbc38202c18a6ee908484604051808381526020018281526020019250505060405180910390a2505050565b60065481565b6000828152602081905260408120610b4a9083611288565b90505b92915050565b6000828152602081905260408120610b4a9083611294565b610b977f71f3d55856e4058ed06ee057d79ada615f65cdf5f9ee88181b914225088f834f6104a9611044565b610bd25760405162461bcd60e51b81526004018080602001828103825260358152602001806119276035913960400191505060405180910390fd5b600380546001600160a01b0319166001600160a01b0392909216919091179055565b600081565b6001600160a01b0381166000908152600760205260408120544311156105b1576001600160a01b038216600090815260076020526040812054610c3d90439061111a565b6001600160a01b03841660009081526007602052604090206002015490915015610d0457610cfd610cdb610c80662386f26fc10000610c7a6112a9565b9061131f565b6006546001600160a01b038716600090815260076020526040902060030154610c7a918691610cd591610cb39190611386565b6001600160a01b038a16600090815260076020526040902060020154906111ce565b90611386565b6001600160a01b038516600090815260076020526040902060010154906111ce565b9150610d09565b600091505b50919050565b610d17611044565b6001600160a01b038116600090815260076020526040902054431115610dc2576001600160a01b038116600090815260076020526040812054610d5b90439061111a565b6001600160a01b03831660009081526007602052604090206002015490915015610da557610d8882610bf9565b6001600160a01b0383166000908152600760205260409020600101555b506001600160a01b03811660009081526007602052604090204390555b600060076000610dd0611044565b6001600160a01b03166001600160a01b0316815260200190815260200160002060010154905060008111610e355760405162461bcd60e51b815260040180806020018281038252602281526020018061195c6022913960400191505060405180910390fd5b600060076000610e43611044565b6001600160a01b039081168252602082019290925260400160002060010191909155600554166340c10f19610e76611044565b836040518363ffffffff1660e01b815260040180836001600160a01b0316815260200182815260200192505050600060405180830381600087803b158015610ebd57600080fd5b505af1158015610ed1573d6000803e3d6000fd5b50505050610edd611044565b6001600160a01b03167fc083a1647e3ee591bf42b82564ffb4d16fdbb26068f0080da911c8d8300fd84a826040518082815260200191505060405180910390a25050565b60015481565b6000818152602081905260408120610b4d906113df565b600082815260208190526040902060020154610f5c906104a9611044565b6106985760405162461bcd60e51b81526004018080602001828103825260308152602001806118d66030913960400191505060405180910390fd5b610fc37f71f3d55856e4058ed06ee057d79ada615f65cdf5f9ee88181b914225088f834f6104a9611044565b610ffe5760405162461bcd60e51b81526004018080602001828103825260358152602001806119276035913960400191505060405180910390fd5b600480546001600160a01b0319166001600160a01b0392909216919091179055565b6004546001600160a01b031681565b6000610b4a836001600160a01b0384166113ea565b3390565b6000828152602081905260409020611060908261102f565b1561062e5761106d611044565b6001600160a01b0316816001600160a01b0316837f2f8788117e7eff1d82e926ec794901d17c78024a50270940304540a733656f0d60405160405180910390a45050565b60008281526020819052604090206110c99082611434565b1561062e576110d6611044565b6001600160a01b0316816001600160a01b0316837ff6391f5c32d9c69d2a47ea670b442974b53935d1edc7fd64eb21e047a839171b60405160405180910390a45050565b600082821115611171576040805162461bcd60e51b815260206004820152601e60248201527f536166654d6174683a207375627472616374696f6e206f766572666c6f770000604482015290519081900360640190fd5b50900390565b604080516001600160a01b038416602482015260448082018490528251808303909101815260649091019091526020810180516001600160e01b031663a9059cbb60e01b1790526111c9908490611449565b505050565b600082820183811015610b4a576040805162461bcd60e51b815260206004820152601b60248201527f536166654d6174683a206164646974696f6e206f766572666c6f770000000000604482015290519081900360640190fd5b604080516001600160a01b0380861660248301528416604482015260648082018490528251808303909101815260849091019091526020810180516001600160e01b03166323b872dd60e01b179052611282908590611449565b50505050565b6000610b4a83836114fa565b6000610b4a836001600160a01b03841661155e565b600354604080516318160ddd60e01b815290516000926001600160a01b0316916318160ddd916004808301926020929190829003018186803b1580156112ee57600080fd5b505afa158015611302573d6000803e3d6000fd5b505050506040513d602081101561131857600080fd5b5051919050565b6000808211611375576040805162461bcd60e51b815260206004820152601a60248201527f536166654d6174683a206469766973696f6e206279207a65726f000000000000604482015290519081900360640190fd5b81838161137e57fe5b049392505050565b60008261139557506000610b4d565b828202828482816113a257fe5b0414610b4a5760405162461bcd60e51b81526004018080602001828103825260218152602001806119066021913960400191505060405180910390fd5b6000610b4d82611576565b60006113f6838361155e565b61142c57508154600181810184556000848152602080822090930184905584548482528286019093526040902091909155610b4d565b506000610b4d565b6000610b4a836001600160a01b03841661157a565b600061149e826040518060400160405280602081526020017f5361666545524332303a206c6f772d6c6576656c2063616c6c206661696c6564815250856001600160a01b03166116409092919063ffffffff16565b8051909150156111c9578080602001905160208110156114bd57600080fd5b50516111c95760405162461bcd60e51b815260040180806020018281038252602a81526020018061197e602a913960400191505060405180910390fd5b8154600090821061153c5760405162461bcd60e51b815260040180806020018281038252602281526020018061185f6022913960400191505060405180910390fd5b82600001828154811061154b57fe5b9060005260206000200154905092915050565b60009081526001919091016020526040902054151590565b5490565b6000818152600183016020526040812054801561163657835460001980830191908101906000908790839081106115ad57fe5b90600052602060002001549050808760000184815481106115ca57fe5b6000918252602080832090910192909255828152600189810190925260409020908401905586548790806115fa57fe5b60019003818190600052602060002001600090559055866001016000878152602001908152602001600020600090556001945050505050610b4d565b6000915050610b4d565b606061164f8484600085611659565b90505b9392505050565b60608247101561169a5760405162461bcd60e51b81526004018080602001828103825260268152602001806118b06026913960400191505060405180910390fd5b6116a3856117b4565b6116f4576040805162461bcd60e51b815260206004820152601d60248201527f416464726573733a2063616c6c20746f206e6f6e2d636f6e7472616374000000604482015290519081900360640190fd5b600080866001600160a01b031685876040518082805190602001908083835b602083106117325780518252601f199092019160209182019101611713565b6001836020036101000a03801982511681845116808217855250505050505090500191505060006040518083038185875af1925050503d8060008114611794576040519150601f19603f3d011682016040523d82523d6000602084013e611799565b606091505b50915091506117a98282866117ba565b979650505050505050565b3b151590565b606083156117c9575081611652565b8251156117d95782518084602001fd5b8160405162461bcd60e51b81526004018080602001828103825283818151815260200191508051906020019080838360005b8381101561182357818101518382015260200161180b565b50505050905090810190601f1680156118505780820380516001836020036101000a031916815260200191505b509250505060405180910390fdfe456e756d657261626c655365743a20696e646578206f7574206f6620626f756e6473416363657373436f6e74726f6c3a2073656e646572206d75737420626520616e2061646d696e20746f206772616e74416464726573733a20696e73756666696369656e742062616c616e636520666f722063616c6c416363657373436f6e74726f6c3a2073656e646572206d75737420626520616e2061646d696e20746f207265766f6b65536166654d6174683a206d756c7469706c69636174696f6e206f766572666c6f775374616b653a206d757374206265204d4f44455241544f525f524f4c4520746f2070657266726f6d20746869732061636374696f6e5374616b653a206d7573742068617665207265776172647320746f20636c61696d2e5361666545524332303a204552433230206f7065726174696f6e20646964206e6f742073756363656564416363657373436f6e74726f6c3a2063616e206f6e6c792072656e6f756e636520726f6c657320666f722073656c66a26469706673582212203d0d7c8a90b1501d5c2f66a79cc84284d394bd9335f7779708f98f0fa773005f64736f6c63430007060033",
  "immutableReferences": {},
  "source": "// SPDX-License-Identifier: MIT\n\npragma solidity ^0.7.6;\n\nimport \"@openzeppelin/contracts/access/AccessControl.sol\";\nimport \"@openzeppelin/contracts/GSN/Context.sol\";\nimport \"@openzeppelin/contracts/token/ERC20/ERC20.sol\";\nimport \"@openzeppelin/contracts/token/ERC20/IERC20.sol\";\nimport \"@openzeppelin/contracts/token/ERC20/SafeERC20.sol\";\nimport \"@openzeppelin/contracts/math/SafeMath.sol\";\nimport \"./interfaces/TokenMinter.sol\";\n\ncontract Stake is AccessControl {\n    bytes32 public constant MODERATOR_ROLE = keccak256(\"MODERATOR_ROLE\");\n\n    using SafeERC20 for IERC20;\n    using SafeMath for uint256;\n\n    // models\n    struct stakeTracker {\n        uint256 lastBlockChecked;\n        uint256 rewards;\n        uint256 tokenStaked;\n        uint256 boostTokenStaked;\n    }\n\n    // variables\n    uint256 public totalBoostTokenStaked;\n    uint256 public totalTokenStaked;\n    address public stakedTokenContractAddress;\n    address public stakedBoostTokenContractAddress;\n    address public stakeRewardTokenContractAddress;\n    uint256 public boostScaleFactor;\n\n    mapping(address => stakeTracker) public stakedBalances;\n\n    constructor() {\n        _setupRole(DEFAULT_ADMIN_ROLE, _msgSender());\n        _setupRole(MODERATOR_ROLE, _msgSender());\n        boostScaleFactor = 10;\n    }\n\n    event Staked(address indexed user, uint256 poolToken, uint256 boostToken);\n    event unStaked(address indexed user, uint256 poolToken, uint256 boostToken);\n    event Rewards(address indexed user, uint256 reward);\n\n    modifier updateStakingReward(address account) {\n        if (block.number > stakedBalances[account].lastBlockChecked) {\n            uint256 rewardBlocks =\n                block.number.sub(stakedBalances[account].lastBlockChecked);\n\n            if (stakedBalances[account].tokenStaked > 0) {\n                stakedBalances[account].rewards = myRewardsBalance(account);\n            }\n            stakedBalances[account].lastBlockChecked = block.number;\n        }\n        _;\n    }\n\n    function getStakeTokenTotalSupply()\n        internal\n        view\n        returns (uint256 totalSupply)\n    {\n        totalSupply = IERC20(stakedTokenContractAddress).totalSupply();\n    }\n\n    function setBoostScaleFactor(uint256 newFactor) external {\n        require(\n            hasRole(MODERATOR_ROLE, _msgSender()),\n            \"Stake: must be MODERATOR_ROLE to perfrom this acction\"\n        );\n        boostScaleFactor = newFactor;\n    }\n\n    function setStakeTokenContractAddress(address origen) external {\n        require(\n            hasRole(MODERATOR_ROLE, _msgSender()),\n            \"Stake: must be MODERATOR_ROLE to perfrom this acction\"\n        );\n        stakedTokenContractAddress = origen;\n    }\n\n    function setStakedBoostTokenContractAddress(address origen) external {\n        require(\n            hasRole(MODERATOR_ROLE, _msgSender()),\n            \"Stake: must be MODERATOR_ROLE to perfrom this acction\"\n        );\n        stakedBoostTokenContractAddress = origen;\n    }\n\n    function setStakeRewardTokenContractAddress(address destination) external {\n        require(\n            hasRole(MODERATOR_ROLE, _msgSender()),\n            \"Stake: must be MODERATOR_ROLE to perfrom this acction\"\n        );\n        stakeRewardTokenContractAddress = destination;\n    }\n\n    function myRewardsBalance(address account)\n        public\n        view\n        returns (uint256 estimatedReward)\n    {\n        if (block.number > stakedBalances[account].lastBlockChecked) {\n            uint256 rewardBlocks =\n                block.number.sub(stakedBalances[account].lastBlockChecked);\n\n            if (stakedBalances[account].tokenStaked > 0) {\n                estimatedReward = stakedBalances[account].rewards.add(\n                    (\n                        (\n                            (\n                                stakedBalances[account].tokenStaked.add(\n                                    stakedBalances[account].boostTokenStaked.mul(boostScaleFactor)\n                                )\n                            )\n                            .mul(rewardBlocks)\n                        )\n                            .div(getStakeTokenTotalSupply().div(10**16))\n                    )\n                );\n            } else {\n                estimatedReward = 0;\n            }\n        }\n    }\n\n    function stake(uint256 poolTokenAmount, uint256 boostTokenAmount)\n        public\n        updateStakingReward(_msgSender())\n    {\n        totalBoostTokenStaked = totalBoostTokenStaked.add(boostTokenAmount);\n        totalTokenStaked = totalTokenStaked.add(poolTokenAmount);\n\n        stakedBalances[_msgSender()].tokenStaked = stakedBalances[\n            _msgSender()\n        ]\n            .tokenStaked\n            .add(poolTokenAmount);\n\n        stakedBalances[_msgSender()].boostTokenStaked = stakedBalances[\n            _msgSender()\n        ]\n            .boostTokenStaked\n            .add(boostTokenAmount);\n\n        if (boostTokenAmount != uint256(0)) {\n            IERC20(stakedBoostTokenContractAddress).safeTransferFrom(\n                _msgSender(),\n                address(this),\n                boostTokenAmount\n            );\n        }\n\n        if (poolTokenAmount != uint256(0)) {\n            IERC20(stakedTokenContractAddress).safeTransferFrom(\n                _msgSender(),\n                address(this),\n                poolTokenAmount\n            );\n        }\n        \n\n        emit Staked(_msgSender(), poolTokenAmount, boostTokenAmount);\n    }\n\n    function unStake(uint256 poolTokenAmount, uint256 boostTokenAmount)\n        public\n        updateStakingReward(_msgSender())\n    {\n        totalBoostTokenStaked = totalBoostTokenStaked.sub(boostTokenAmount);\n        totalTokenStaked = totalTokenStaked.sub(poolTokenAmount);\n\n        stakedBalances[_msgSender()].boostTokenStaked = stakedBalances[\n            _msgSender()\n        ]\n            .boostTokenStaked\n            .sub(boostTokenAmount);\n        stakedBalances[_msgSender()].tokenStaked = stakedBalances[\n            _msgSender()\n        ]\n            .tokenStaked\n            .sub(poolTokenAmount);\n\n        if (boostTokenAmount != uint256(0)) {\n            IERC20(stakedBoostTokenContractAddress).safeTransfer(\n                _msgSender(),\n                boostTokenAmount\n            );\n        }\n        \n        if (poolTokenAmount != uint256(0)) {\n            IERC20(stakedTokenContractAddress).safeTransfer(\n                _msgSender(),\n                poolTokenAmount\n            );\n        }\n        \n        emit unStaked(_msgSender(), poolTokenAmount, boostTokenAmount);\n    }\n\n    function claimReward() public updateStakingReward(_msgSender()) {\n        uint256 reward = stakedBalances[_msgSender()].rewards;\n        require(reward > 0, \"Stake: must have rewards to claim.\");\n        stakedBalances[_msgSender()].rewards = 0;\n        TokenMinter(stakeRewardTokenContractAddress).mint(\n            _msgSender(),\n            reward\n        );\n        emit Rewards(_msgSender(), reward);\n    }\n}\n",
  "sourcePath": "/home/rekard0/Documents/WORK/cloning-defi/wine.finance/contract-uniswap/contracts/Stake.sol",
  "compiler": {
    "name": "solc",
    "version": "0.7.6+commit.7338295f.Emscripten.clang"
  },
  "schemaVersion": "3.3.3",
  "updatedAt": "2021-03-20T21:18:51.191Z",
  "networkType": "ethereum",
  "devdoc": {
    "kind": "dev",
    "methods": {
      "getRoleAdmin(bytes32)": {
        "details": "Returns the admin role that controls `role`. See {grantRole} and {revokeRole}. To change a role's admin, use {_setRoleAdmin}."
      },
      "getRoleMember(bytes32,uint256)": {
        "details": "Returns one of the accounts that have `role`. `index` must be a value between 0 and {getRoleMemberCount}, non-inclusive. Role bearers are not sorted in any particular way, and their ordering may change at any point. WARNING: When using {getRoleMember} and {getRoleMemberCount}, make sure you perform all queries on the same block. See the following https://forum.openzeppelin.com/t/iterating-over-elements-on-enumerableset-in-openzeppelin-contracts/2296[forum post] for more information."
      },
      "getRoleMemberCount(bytes32)": {
        "details": "Returns the number of accounts that have `role`. Can be used together with {getRoleMember} to enumerate all bearers of a role."
      },
      "grantRole(bytes32,address)": {
        "details": "Grants `role` to `account`. If `account` had not been already granted `role`, emits a {RoleGranted} event. Requirements: - the caller must have ``role``'s admin role."
      },
      "hasRole(bytes32,address)": {
        "details": "Returns `true` if `account` has been granted `role`."
      },
      "renounceRole(bytes32,address)": {
        "details": "Revokes `role` from the calling account. Roles are often managed via {grantRole} and {revokeRole}: this function's purpose is to provide a mechanism for accounts to lose their privileges if they are compromised (such as when a trusted device is misplaced). If the calling account had been granted `role`, emits a {RoleRevoked} event. Requirements: - the caller must be `account`."
      },
      "revokeRole(bytes32,address)": {
        "details": "Revokes `role` from `account`. If `account` had been granted `role`, emits a {RoleRevoked} event. Requirements: - the caller must have ``role``'s admin role."
      }
    },
    "version": 1
  },
  "userdoc": {
    "kind": "user",
    "methods": {},
    "version": 1
  }
}