{
  "contractName": "TreeToken",
  "abi": [
    {
      "inputs": [],
      "stateMutability": "nonpayable",
      "type": "constructor"
    },
    {
      "anonymous": false,
      "inputs": [
        {
          "indexed": true,
          "internalType": "address",
          "name": "owner",
          "type": "address"
        },
        {
          "indexed": true,
          "internalType": "address",
          "name": "approved",
          "type": "address"
        },
        {
          "indexed": true,
          "internalType": "uint256",
          "name": "tokenId",
          "type": "uint256"
        }
      ],
      "name": "Approval",
      "type": "event"
    },
    {
      "anonymous": false,
      "inputs": [
        {
          "indexed": true,
          "internalType": "address",
          "name": "owner",
          "type": "address"
        },
        {
          "indexed": true,
          "internalType": "address",
          "name": "operator",
          "type": "address"
        },
        {
          "indexed": false,
          "internalType": "bool",
          "name": "approved",
          "type": "bool"
        }
      ],
      "name": "ApprovalForAll",
      "type": "event"
    },
    {
      "anonymous": false,
      "inputs": [
        {
          "indexed": true,
          "internalType": "bytes32",
          "name": "role",
          "type": "bytes32"
        },
        {
          "indexed": true,
          "internalType": "bytes32",
          "name": "previousAdminRole",
          "type": "bytes32"
        },
        {
          "indexed": true,
          "internalType": "bytes32",
          "name": "newAdminRole",
          "type": "bytes32"
        }
      ],
      "name": "RoleAdminChanged",
      "type": "event"
    },
    {
      "anonymous": false,
      "inputs": [
        {
          "indexed": true,
          "internalType": "bytes32",
          "name": "role",
          "type": "bytes32"
        },
        {
          "indexed": true,
          "internalType": "address",
          "name": "account",
          "type": "address"
        },
        {
          "indexed": true,
          "internalType": "address",
          "name": "sender",
          "type": "address"
        }
      ],
      "name": "RoleGranted",
      "type": "event"
    },
    {
      "anonymous": false,
      "inputs": [
        {
          "indexed": true,
          "internalType": "bytes32",
          "name": "role",
          "type": "bytes32"
        },
        {
          "indexed": true,
          "internalType": "address",
          "name": "account",
          "type": "address"
        },
        {
          "indexed": true,
          "internalType": "address",
          "name": "sender",
          "type": "address"
        }
      ],
      "name": "RoleRevoked",
      "type": "event"
    },
    {
      "anonymous": false,
      "inputs": [
        {
          "indexed": true,
          "internalType": "address",
          "name": "from",
          "type": "address"
        },
        {
          "indexed": true,
          "internalType": "address",
          "name": "to",
          "type": "address"
        },
        {
          "indexed": true,
          "internalType": "uint256",
          "name": "tokenId",
          "type": "uint256"
        }
      ],
      "name": "Transfer",
      "type": "event"
    },
    {
      "anonymous": false,
      "inputs": [
        {
          "indexed": true,
          "internalType": "address",
          "name": "from",
          "type": "address"
        },
        {
          "indexed": true,
          "internalType": "uint256",
          "name": "treeId",
          "type": "uint256"
        },
        {
          "indexed": false,
          "internalType": "uint256",
          "name": "grapeCreated",
          "type": "uint256"
        }
      ],
      "name": "TreeBurned",
      "type": "event"
    },
    {
      "inputs": [],
      "name": "DEFAULT_ADMIN_ROLE",
      "outputs": [
        {
          "internalType": "bytes32",
          "name": "",
          "type": "bytes32"
        }
      ],
      "stateMutability": "view",
      "type": "function",
      "constant": true
    },
    {
      "inputs": [],
      "name": "MODERATOR_ROLE",
      "outputs": [
        {
          "internalType": "bytes32",
          "name": "",
          "type": "bytes32"
        }
      ],
      "stateMutability": "view",
      "type": "function",
      "constant": true
    },
    {
      "inputs": [
        {
          "internalType": "address",
          "name": "to",
          "type": "address"
        },
        {
          "internalType": "uint256",
          "name": "tokenId",
          "type": "uint256"
        }
      ],
      "name": "approve",
      "outputs": [],
      "stateMutability": "nonpayable",
      "type": "function"
    },
    {
      "inputs": [
        {
          "internalType": "address",
          "name": "owner",
          "type": "address"
        }
      ],
      "name": "balanceOf",
      "outputs": [
        {
          "internalType": "uint256",
          "name": "",
          "type": "uint256"
        }
      ],
      "stateMutability": "view",
      "type": "function",
      "constant": true
    },
    {
      "inputs": [],
      "name": "baseURI",
      "outputs": [
        {
          "internalType": "string",
          "name": "",
          "type": "string"
        }
      ],
      "stateMutability": "view",
      "type": "function",
      "constant": true
    },
    {
      "inputs": [],
      "name": "boostAddress",
      "outputs": [
        {
          "internalType": "address",
          "name": "",
          "type": "address"
        }
      ],
      "stateMutability": "view",
      "type": "function",
      "constant": true
    },
    {
      "inputs": [],
      "name": "boostTokenForHour",
      "outputs": [
        {
          "internalType": "uint256",
          "name": "",
          "type": "uint256"
        }
      ],
      "stateMutability": "view",
      "type": "function",
      "constant": true
    },
    {
      "inputs": [
        {
          "internalType": "uint256",
          "name": "tokenId",
          "type": "uint256"
        }
      ],
      "name": "burn",
      "outputs": [],
      "stateMutability": "nonpayable",
      "type": "function"
    },
    {
      "inputs": [],
      "name": "currentCap",
      "outputs": [
        {
          "internalType": "uint256",
          "name": "",
          "type": "uint256"
        }
      ],
      "stateMutability": "view",
      "type": "function",
      "constant": true
    },
    {
      "inputs": [
        {
          "internalType": "uint256",
          "name": "tokenId",
          "type": "uint256"
        }
      ],
      "name": "getApproved",
      "outputs": [
        {
          "internalType": "address",
          "name": "",
          "type": "address"
        }
      ],
      "stateMutability": "view",
      "type": "function",
      "constant": true
    },
    {
      "inputs": [
        {
          "internalType": "bytes32",
          "name": "role",
          "type": "bytes32"
        }
      ],
      "name": "getRoleAdmin",
      "outputs": [
        {
          "internalType": "bytes32",
          "name": "",
          "type": "bytes32"
        }
      ],
      "stateMutability": "view",
      "type": "function",
      "constant": true
    },
    {
      "inputs": [
        {
          "internalType": "bytes32",
          "name": "role",
          "type": "bytes32"
        },
        {
          "internalType": "uint256",
          "name": "index",
          "type": "uint256"
        }
      ],
      "name": "getRoleMember",
      "outputs": [
        {
          "internalType": "address",
          "name": "",
          "type": "address"
        }
      ],
      "stateMutability": "view",
      "type": "function",
      "constant": true
    },
    {
      "inputs": [
        {
          "internalType": "bytes32",
          "name": "role",
          "type": "bytes32"
        }
      ],
      "name": "getRoleMemberCount",
      "outputs": [
        {
          "internalType": "uint256",
          "name": "",
          "type": "uint256"
        }
      ],
      "stateMutability": "view",
      "type": "function",
      "constant": true
    },
    {
      "inputs": [
        {
          "internalType": "bytes32",
          "name": "role",
          "type": "bytes32"
        },
        {
          "internalType": "address",
          "name": "account",
          "type": "address"
        }
      ],
      "name": "grantRole",
      "outputs": [],
      "stateMutability": "nonpayable",
      "type": "function"
    },
    {
      "inputs": [],
      "name": "grapeAddress",
      "outputs": [
        {
          "internalType": "address",
          "name": "",
          "type": "address"
        }
      ],
      "stateMutability": "view",
      "type": "function",
      "constant": true
    },
    {
      "inputs": [
        {
          "internalType": "bytes32",
          "name": "role",
          "type": "bytes32"
        },
        {
          "internalType": "address",
          "name": "account",
          "type": "address"
        }
      ],
      "name": "hasRole",
      "outputs": [
        {
          "internalType": "bool",
          "name": "",
          "type": "bool"
        }
      ],
      "stateMutability": "view",
      "type": "function",
      "constant": true
    },
    {
      "inputs": [
        {
          "internalType": "address",
          "name": "owner",
          "type": "address"
        },
        {
          "internalType": "address",
          "name": "operator",
          "type": "address"
        }
      ],
      "name": "isApprovedForAll",
      "outputs": [
        {
          "internalType": "bool",
          "name": "",
          "type": "bool"
        }
      ],
      "stateMutability": "view",
      "type": "function",
      "constant": true
    },
    {
      "inputs": [],
      "name": "lastLiquidityRemoval",
      "outputs": [
        {
          "internalType": "uint256",
          "name": "",
          "type": "uint256"
        }
      ],
      "stateMutability": "view",
      "type": "function",
      "constant": true
    },
    {
      "inputs": [],
      "name": "liquidityRemovalTimeLock",
      "outputs": [
        {
          "internalType": "uint256",
          "name": "",
          "type": "uint256"
        }
      ],
      "stateMutability": "view",
      "type": "function",
      "constant": true
    },
    {
      "inputs": [],
      "name": "name",
      "outputs": [
        {
          "internalType": "string",
          "name": "",
          "type": "string"
        }
      ],
      "stateMutability": "view",
      "type": "function",
      "constant": true
    },
    {
      "inputs": [
        {
          "internalType": "uint256",
          "name": "tokenId",
          "type": "uint256"
        }
      ],
      "name": "ownerOf",
      "outputs": [
        {
          "internalType": "address",
          "name": "",
          "type": "address"
        }
      ],
      "stateMutability": "view",
      "type": "function",
      "constant": true
    },
    {
      "inputs": [
        {
          "internalType": "bytes32",
          "name": "role",
          "type": "bytes32"
        },
        {
          "internalType": "address",
          "name": "account",
          "type": "address"
        }
      ],
      "name": "renounceRole",
      "outputs": [],
      "stateMutability": "nonpayable",
      "type": "function"
    },
    {
      "inputs": [
        {
          "internalType": "bytes32",
          "name": "role",
          "type": "bytes32"
        },
        {
          "internalType": "address",
          "name": "account",
          "type": "address"
        }
      ],
      "name": "revokeRole",
      "outputs": [],
      "stateMutability": "nonpayable",
      "type": "function"
    },
    {
      "inputs": [
        {
          "internalType": "address",
          "name": "from",
          "type": "address"
        },
        {
          "internalType": "address",
          "name": "to",
          "type": "address"
        },
        {
          "internalType": "uint256",
          "name": "tokenId",
          "type": "uint256"
        }
      ],
      "name": "safeTransferFrom",
      "outputs": [],
      "stateMutability": "nonpayable",
      "type": "function"
    },
    {
      "inputs": [
        {
          "internalType": "address",
          "name": "from",
          "type": "address"
        },
        {
          "internalType": "address",
          "name": "to",
          "type": "address"
        },
        {
          "internalType": "uint256",
          "name": "tokenId",
          "type": "uint256"
        },
        {
          "internalType": "bytes",
          "name": "_data",
          "type": "bytes"
        }
      ],
      "name": "safeTransferFrom",
      "outputs": [],
      "stateMutability": "nonpayable",
      "type": "function"
    },
    {
      "inputs": [
        {
          "internalType": "address",
          "name": "operator",
          "type": "address"
        },
        {
          "internalType": "bool",
          "name": "approved",
          "type": "bool"
        }
      ],
      "name": "setApprovalForAll",
      "outputs": [],
      "stateMutability": "nonpayable",
      "type": "function"
    },
    {
      "inputs": [
        {
          "internalType": "bytes4",
          "name": "interfaceId",
          "type": "bytes4"
        }
      ],
      "name": "supportsInterface",
      "outputs": [
        {
          "internalType": "bool",
          "name": "",
          "type": "bool"
        }
      ],
      "stateMutability": "view",
      "type": "function",
      "constant": true
    },
    {
      "inputs": [],
      "name": "symbol",
      "outputs": [
        {
          "internalType": "string",
          "name": "",
          "type": "string"
        }
      ],
      "stateMutability": "view",
      "type": "function",
      "constant": true
    },
    {
      "inputs": [
        {
          "internalType": "uint256",
          "name": "index",
          "type": "uint256"
        }
      ],
      "name": "tokenByIndex",
      "outputs": [
        {
          "internalType": "uint256",
          "name": "",
          "type": "uint256"
        }
      ],
      "stateMutability": "view",
      "type": "function",
      "constant": true
    },
    {
      "inputs": [
        {
          "internalType": "address",
          "name": "owner",
          "type": "address"
        },
        {
          "internalType": "uint256",
          "name": "index",
          "type": "uint256"
        }
      ],
      "name": "tokenOfOwnerByIndex",
      "outputs": [
        {
          "internalType": "uint256",
          "name": "",
          "type": "uint256"
        }
      ],
      "stateMutability": "view",
      "type": "function",
      "constant": true
    },
    {
      "inputs": [
        {
          "internalType": "uint256",
          "name": "tokenId",
          "type": "uint256"
        }
      ],
      "name": "tokenURI",
      "outputs": [
        {
          "internalType": "string",
          "name": "",
          "type": "string"
        }
      ],
      "stateMutability": "view",
      "type": "function",
      "constant": true
    },
    {
      "inputs": [],
      "name": "totalLiquidityAccumulated",
      "outputs": [
        {
          "internalType": "uint256",
          "name": "",
          "type": "uint256"
        }
      ],
      "stateMutability": "view",
      "type": "function",
      "constant": true
    },
    {
      "inputs": [],
      "name": "totalSupply",
      "outputs": [
        {
          "internalType": "uint256",
          "name": "",
          "type": "uint256"
        }
      ],
      "stateMutability": "view",
      "type": "function",
      "constant": true
    },
    {
      "inputs": [
        {
          "internalType": "address",
          "name": "from",
          "type": "address"
        },
        {
          "internalType": "address",
          "name": "to",
          "type": "address"
        },
        {
          "internalType": "uint256",
          "name": "tokenId",
          "type": "uint256"
        }
      ],
      "name": "transferFrom",
      "outputs": [],
      "stateMutability": "nonpayable",
      "type": "function"
    },
    {
      "inputs": [],
      "name": "treePrice",
      "outputs": [
        {
          "internalType": "uint256",
          "name": "",
          "type": "uint256"
        }
      ],
      "stateMutability": "view",
      "type": "function",
      "constant": true
    },
    {
      "inputs": [
        {
          "internalType": "uint256",
          "name": "",
          "type": "uint256"
        }
      ],
      "name": "treeStatus",
      "outputs": [
        {
          "internalType": "uint256",
          "name": "lastAgeUpdate",
          "type": "uint256"
        },
        {
          "internalType": "uint256",
          "name": "treeAge",
          "type": "uint256"
        },
        {
          "internalType": "bool",
          "name": "isAlive",
          "type": "bool"
        },
        {
          "internalType": "uint256",
          "name": "grapeGenerated",
          "type": "uint256"
        },
        {
          "internalType": "uint256",
          "name": "boostedAmount",
          "type": "uint256"
        }
      ],
      "stateMutability": "view",
      "type": "function",
      "constant": true
    },
    {
      "inputs": [],
      "name": "uniSwapFactoryAddress",
      "outputs": [
        {
          "internalType": "address",
          "name": "",
          "type": "address"
        }
      ],
      "stateMutability": "view",
      "type": "function",
      "constant": true
    },
    {
      "inputs": [],
      "name": "uniSwapRouterAddress",
      "outputs": [
        {
          "internalType": "address",
          "name": "",
          "type": "address"
        }
      ],
      "stateMutability": "view",
      "type": "function",
      "constant": true
    },
    {
      "inputs": [],
      "name": "wethAddress",
      "outputs": [
        {
          "internalType": "address",
          "name": "",
          "type": "address"
        }
      ],
      "stateMutability": "view",
      "type": "function",
      "constant": true
    },
    {
      "stateMutability": "payable",
      "type": "receive",
      "payable": true
    },
    {
      "inputs": [
        {
          "internalType": "address payable",
          "name": "newTeamAddress",
          "type": "address"
        },
        {
          "internalType": "address payable",
          "name": "newDevAddress",
          "type": "address"
        }
      ],
      "name": "setTeamDevAddress",
      "outputs": [],
      "stateMutability": "nonpayable",
      "type": "function"
    },
    {
      "inputs": [
        {
          "internalType": "address",
          "name": "newRouterAddress",
          "type": "address"
        },
        {
          "internalType": "address",
          "name": "newUniSwapFactoryAddress",
          "type": "address"
        },
        {
          "internalType": "address",
          "name": "newWethAddress",
          "type": "address"
        }
      ],
      "name": "setUniswapAddresses",
      "outputs": [],
      "stateMutability": "nonpayable",
      "type": "function"
    },
    {
      "inputs": [
        {
          "internalType": "uint256",
          "name": "newCap",
          "type": "uint256"
        }
      ],
      "name": "setCap",
      "outputs": [],
      "stateMutability": "nonpayable",
      "type": "function"
    },
    {
      "inputs": [
        {
          "internalType": "address",
          "name": "newgrapeAddress",
          "type": "address"
        }
      ],
      "name": "setgrapeAddress",
      "outputs": [],
      "stateMutability": "nonpayable",
      "type": "function"
    },
    {
      "inputs": [
        {
          "internalType": "address",
          "name": "newBoostAddress",
          "type": "address"
        },
        {
          "internalType": "uint256",
          "name": "newBoostTokenForHour",
          "type": "uint256"
        }
      ],
      "name": "setBoostAddress",
      "outputs": [],
      "stateMutability": "nonpayable",
      "type": "function"
    },
    {
      "inputs": [
        {
          "internalType": "uint256",
          "name": "newTreePrice",
          "type": "uint256"
        },
        {
          "internalType": "uint256",
          "name": "newTeamShare",
          "type": "uint256"
        },
        {
          "internalType": "uint256",
          "name": "newDevShare",
          "type": "uint256"
        }
      ],
      "name": "setTreePrice",
      "outputs": [],
      "stateMutability": "nonpayable",
      "type": "function"
    },
    {
      "inputs": [
        {
          "internalType": "uint256",
          "name": "amount",
          "type": "uint256"
        }
      ],
      "name": "buyTrees",
      "outputs": [],
      "stateMutability": "payable",
      "type": "function",
      "payable": true
    },
    {
      "inputs": [
        {
          "internalType": "address",
          "name": "pool",
          "type": "address"
        },
        {
          "internalType": "uint256",
          "name": "liquidity",
          "type": "uint256"
        }
      ],
      "name": "removeGrapeLiquidity",
      "outputs": [],
      "stateMutability": "nonpayable",
      "type": "function"
    },
    {
      "inputs": [],
      "name": "burnLeftOverGrapeToken",
      "outputs": [],
      "stateMutability": "nonpayable",
      "type": "function"
    },
    {
      "inputs": [],
      "name": "withdrawLeftOverEth",
      "outputs": [],
      "stateMutability": "nonpayable",
      "type": "function"
    },
    {
      "inputs": [
        {
          "internalType": "uint256",
          "name": "treeId",
          "type": "uint256"
        }
      ],
      "name": "updatingTreeAgeStatus",
      "outputs": [
        {
          "internalType": "uint256",
          "name": "",
          "type": "uint256"
        }
      ],
      "stateMutability": "nonpayable",
      "type": "function"
    },
    {
      "inputs": [
        {
          "internalType": "uint256",
          "name": "treeId",
          "type": "uint256"
        }
      ],
      "name": "getTreePotencial",
      "outputs": [
        {
          "internalType": "bool",
          "name": "isAlive",
          "type": "bool"
        },
        {
          "internalType": "uint256",
          "name": "potencialGrape",
          "type": "uint256"
        },
        {
          "internalType": "uint256",
          "name": "treeAge",
          "type": "uint256"
        }
      ],
      "stateMutability": "view",
      "type": "function",
      "constant": true
    },
    {
      "inputs": [
        {
          "internalType": "uint256",
          "name": "treeId",
          "type": "uint256"
        }
      ],
      "name": "burnTreeForGrape",
      "outputs": [],
      "stateMutability": "nonpayable",
      "type": "function"
    },
    {
      "inputs": [],
      "name": "isBosstTreeActive",
      "outputs": [
        {
          "internalType": "bool",
          "name": "",
          "type": "bool"
        }
      ],
      "stateMutability": "view",
      "type": "function",
      "constant": true
    },
    {
      "inputs": [
        {
          "internalType": "uint256",
          "name": "treeId",
          "type": "uint256"
        },
        {
          "internalType": "uint256",
          "name": "tokenAmount",
          "type": "uint256"
        }
      ],
      "name": "boostTree",
      "outputs": [],
      "stateMutability": "nonpayable",
      "type": "function"
    },
    {
      "inputs": [
        {
          "internalType": "uint256",
          "name": "treeId",
          "type": "uint256"
        }
      ],
      "name": "boostTreeWithEth",
      "outputs": [],
      "stateMutability": "payable",
      "type": "function",
      "payable": true
    }
  ],
  "bytecode": "0x6080604052670de0b6b3a7640000600d553480156200001d57600080fd5b50604080518082018252601981527f43616265726e6574204672616e63205472656520546f6b656e0000000000000060208083019190915282518084019093526005835264435452454560d81b9083015290620000816301ffc9a760e01b620002e3565b81516200009690600790602085019062000816565b508051620000ac90600890602084019062000816565b50620000bf6380ac58cd60e01b620002e3565b620000d1635b5e139f60e01b620002e3565b620000e363780e9d6360e01b620002e3565b50506105dc601b556706f05b59d3b20000600e556658d15e17628000600f8190556011556200011d6000620001176200036b565b6200036f565b6200014c7f71f3d55856e4058ed06ee057d79ada615f65cdf5f9ee88181b914225088f834f620001176200036b565b60408051808201909152600b81526a57494e455f464e414e434560a81b602082015262000179906200037f565b620001836200036b565b601260006101000a8154816001600160a01b0302191690836001600160a01b03160217905550620001c662ed4e00426200039460201b62002a7c1790919060201c565b60185560005b600c811015620002dc577366a204539a77f9dd9dcb33a88e9c9bb12025235a6005821115620001f85750335b6200021a81620002146019620003f860201b62002ad61760201c565b620003fc565b6040518060a0016040528042815260200160008152602001600115158152602001600081526020016000815250601a6000620002626019620003f860201b62002ad61760201c565b8152602001908152602001600020600082015181600001556020820151816001015560408201518160020160006101000a81548160ff0219169083151502179055506060820151816003015560808201518160040155905050620002d260196200055060201b62002ada1760201c565b50600101620001cc565b50620008c2565b6001600160e01b0319808216141562000343576040805162461bcd60e51b815260206004820152601c60248201527f4552433136353a20696e76616c696420696e7465726661636520696400000000604482015290519081900360640190fd5b6001600160e01b0319166000908152600160208190526040909120805460ff19169091179055565b3390565b6200037b828262000559565b5050565b80516200037b90600a90602084019062000816565b600082820183811015620003ef576040805162461bcd60e51b815260206004820152601b60248201527f536166654d6174683a206164646974696f6e206f766572666c6f770000000000604482015290519081900360640190fd5b90505b92915050565b5490565b6001600160a01b03821662000458576040805162461bcd60e51b815260206004820181905260248201527f4552433732313a206d696e7420746f20746865207a65726f2061646472657373604482015290519081900360640190fd5b6200046381620005d2565b15620004b6576040805162461bcd60e51b815260206004820152601c60248201527f4552433732313a20746f6b656e20616c7265616479206d696e74656400000000604482015290519081900360640190fd5b620004c460008383620005ef565b6001600160a01b0382166000908152600260209081526040909120620004f591839062002ae362000696821b17901c565b506200051381836003620006a460201b62002aef179092919060201c565b5060405181906001600160a01b038416906000907fddf252ad1be2c89b69c2b068fc378daa952ba7f163c4a11628f55a4df523b3ef908290a45050565b80546001019055565b6000828152602081815260409091206200057e91839062002b0f620006c6821b17901c565b156200037b576200058e6200036b565b6001600160a01b0316816001600160a01b0316837f2f8788117e7eff1d82e926ec794901d17c78024a50270940304540a733656f0d60405160405180910390a45050565b6000620003f2826003620006dd60201b62002b241790919060201c565b620006078383836200069160201b62000e301760201c565b6001600160a01b0383166200069157601b546200063d600162000629620006eb565b6200039460201b62002a7c1790919060201c565b111562000691576040805162461bcd60e51b815260206004820152601760248201527f54726565546f6b656e3a20636170206578636565646564000000000000000000604482015290519081900360640190fd5b505050565b6000620003ef838362000709565b6000620006bc84846001600160a01b03851662000758565b90505b9392505050565b6000620003ef836001600160a01b03841662000709565b6000620003ef8383620007f3565b60006200070460036200080b60201b62002b301760201c565b905090565b6000620007178383620007f3565b6200074f57508154600181810184556000848152602080822090930184905584548482528286019093526040902091909155620003f2565b506000620003f2565b600082815260018401602052604081205480620007bf575050604080518082018252838152602080820184815286546001818101895560008981528481209551600290930290950191825591519082015586548684528188019092529290912055620006bf565b82856000016001830381548110620007d357fe5b9060005260206000209060020201600101819055506000915050620006bf565b60009081526001919091016020526040902054151590565b6000620003f2825490565b828054600181600116156101000203166002900490600052602060002090601f0160209004810192826200084e576000855562000899565b82601f106200086957805160ff191683800117855562000899565b8280016001018555821562000899579182015b82811115620008995782518255916020019190600101906200087c565b50620008a7929150620008ab565b5090565b5b80821115620008a75760008155600101620008ac565b61490680620008d26000396000f3fe6080604052600436106103645760003560e01c80636352211e116101c6578063a22cb465116100f7578063c87b56dd11610095578063d32e2f381161006f578063d32e2f3814610cab578063d547741f14610cc8578063e94d1fdc14610d01578063e985e9c514610d565761036b565b8063c87b56dd14610c42578063ca15c87314610c6c578063d285674614610c965761036b565b8063bc270fe1116100d1578063bc270fe114610bb3578063bdd0229614610bc8578063bead0d2614610c03578063c1698f3214610c2d5761036b565b8063a22cb46514610a6f578063adc29f6e14610aaa578063b88d4fde14610ae05761036b565b806381990534116101645780639010d07c1161013e5780639010d07c146109dc57806391d1485414610a0c57806395d89b4114610a45578063a217fddf14610a5a5761036b565b80638199053414610988578063856ed703146109b257806385e8ebb2146109c75761036b565b806371a1a2e2116101a057806371a1a2e214610916578063749fdb2f1461092b578063797669c91461095e5780637cc1ada9146109735761036b565b80636352211e146108a45780636c0360eb146108ce57806370a08231146108e35761036b565b806323b872dd116102a05780633ca1a3a11161023e57806347786d371161021857806347786d37146107f15780634f0e0ef31461081b5780634f6ccce7146108305780635f1bd8ec1461085a5761036b565b80633ca1a3a11461076f57806342842e0e1461078457806342966c68146107c75761036b565b80632f745c591161027a5780632f745c59146106af57806336568abe146106e857806339767a12146107215780633ab5023f146107365761036b565b806323b872dd14610609578063248a9ca31461064c5780632f2ff15d146106765761036b565b806306fdde031161030d5780630b344aa6116102e75780630b344aa6146105465780630e7e03f11461057657806318160ddd146105bb5780631f5b7035146105d05761036b565b806306fdde0314610459578063081812fc146104e3578063095ea7b31461050d5761036b565b80630535d6b71161033e5780630535d6b7146103f657806305497265146104135780630605f54c146104445761036b565b8063015697531461037057806301ffc9a71461038757806302839260146103cf5761036b565b3661036b57005b600080fd5b34801561037c57600080fd5b50610385610d91565b005b34801561039357600080fd5b506103bb600480360360208110156103aa57600080fd5b50356001600160e01b031916610e35565b604080519115158252519081900360200190f35b3480156103db57600080fd5b506103e4610e58565b60408051918252519081900360200190f35b6103856004803603602081101561040c57600080fd5b5035610e5e565b34801561041f57600080fd5b5061042861106f565b604080516001600160a01b039092168252519081900360200190f35b34801561045057600080fd5b506103e461107e565b34801561046557600080fd5b5061046e611084565b6040805160208082528351818301528351919283929083019185019080838360005b838110156104a8578181015183820152602001610490565b50505050905090810190601f1680156104d55780820380516001836020036101000a031916815260200191505b509250505060405180910390f35b3480156104ef57600080fd5b506104286004803603602081101561050657600080fd5b503561111a565b34801561051957600080fd5b506103856004803603604081101561053057600080fd5b506001600160a01b03813516906020013561117c565b34801561055257600080fd5b506103856004803603604081101561056957600080fd5b5080359060200135611252565b34801561058257600080fd5b506103856004803603606081101561059957600080fd5b506001600160a01b038135811691602081013582169160409091013516611472565b3480156105c757600080fd5b506103e4611506565b3480156105dc57600080fd5b50610385600480360360408110156105f357600080fd5b506001600160a01b038135169060200135611517565b34801561061557600080fd5b506103856004803603606081101561062c57600080fd5b506001600160a01b03813581169160208101359091169060400135611592565b34801561065857600080fd5b506103e46004803603602081101561066f57600080fd5b50356115e9565b34801561068257600080fd5b506103856004803603604081101561069957600080fd5b50803590602001356001600160a01b03166115fe565b3480156106bb57600080fd5b506103e4600480360360408110156106d257600080fd5b506001600160a01b038135169060200135611665565b3480156106f457600080fd5b506103856004803603604081101561070b57600080fd5b50803590602001356001600160a01b0316611690565b34801561072d57600080fd5b506103856116f1565b34801561074257600080fd5b506103856004803603604081101561075957600080fd5b506001600160a01b038135169060200135611828565b34801561077b57600080fd5b50610428611b66565b34801561079057600080fd5b50610385600480360360608110156107a757600080fd5b506001600160a01b03813581169160208101359091169060400135611b75565b3480156107d357600080fd5b50610385600480360360208110156107ea57600080fd5b5035611b90565b3480156107fd57600080fd5b506103856004803603602081101561081457600080fd5b5035611be2565b34801561082757600080fd5b50610428611c82565b34801561083c57600080fd5b506103e46004803603602081101561085357600080fd5b5035611c91565b34801561086657600080fd5b506108846004803603602081101561087d57600080fd5b5035611ca7565b604080519315158452602084019290925282820152519081900360600190f35b3480156108b057600080fd5b50610428600480360360208110156108c757600080fd5b5035611d64565b3480156108da57600080fd5b5061046e611d8c565b3480156108ef57600080fd5b506103e46004803603602081101561090657600080fd5b50356001600160a01b0316611ded565b34801561092257600080fd5b506103e4611e55565b34801561093757600080fd5b506103856004803603602081101561094e57600080fd5b50356001600160a01b0316611e5b565b34801561096a57600080fd5b506103e4611ed2565b34801561097f57600080fd5b506103bb611ee4565b34801561099457600080fd5b506103e4600480360360208110156109ab57600080fd5b5035611ef5565b3480156109be57600080fd5b506103e461202d565b3480156109d357600080fd5b50610428612033565b3480156109e857600080fd5b50610428600480360360408110156109ff57600080fd5b5080359060200135612042565b348015610a1857600080fd5b506103bb60048036036040811015610a2f57600080fd5b50803590602001356001600160a01b031661205a565b348015610a5157600080fd5b5061046e612072565b348015610a6657600080fd5b506103e46120d3565b348015610a7b57600080fd5b5061038560048036036040811015610a9257600080fd5b506001600160a01b03813516906020013515156120d8565b348015610ab657600080fd5b5061038560048036036060811015610acd57600080fd5b50803590602081013590604001356121dd565b348015610aec57600080fd5b5061038560048036036080811015610b0357600080fd5b6001600160a01b03823581169260208101359091169160408201359190810190608081016060820135640100000000811115610b3e57600080fd5b820183602082011115610b5057600080fd5b80359060200191846001830284011164010000000083111715610b7257600080fd5b91908080601f016020809104026020016040519081016040528093929190818152602001838380828437600092019190915250929550612240945050505050565b348015610bbf57600080fd5b506103e461229e565b348015610bd457600080fd5b5061038560048036036040811015610beb57600080fd5b506001600160a01b03813581169160200135166122a4565b348015610c0f57600080fd5b5061038560048036036020811015610c2657600080fd5b5035612327565b348015610c3957600080fd5b5061042861253f565b348015610c4e57600080fd5b5061046e60048036036020811015610c6557600080fd5b503561254e565b348015610c7857600080fd5b506103e460048036036020811015610c8f57600080fd5b50356127cf565b348015610ca257600080fd5b506103e46127e6565b61038560048036036020811015610cc157600080fd5b50356127ec565b348015610cd457600080fd5b5061038560048036036040811015610ceb57600080fd5b50803590602001356001600160a01b03166129c2565b348015610d0d57600080fd5b50610d2b60048036036020811015610d2457600080fd5b5035612a1b565b6040805195865260208601949094529115158484015260608401526080830152519081900360a00190f35b348015610d6257600080fd5b506103bb60048036036040811015610d7957600080fd5b506001600160a01b0381358116916020013516612a4e565b610db06000805160206146fa833981519152610dab612b3b565b61205a565b610deb5760405162461bcd60e51b81526004018080602001828103825260348152602001806143766034913960400191505060405180910390fd5b6000610df5612b3b565b60405190915047906001600160a01b0383169082156108fc029083906000818181858888f19350505050158015610e30573d6000803e3d6000fd5b505050565b6001600160e01b0319811660009081526001602052604090205460ff165b919050565b60165481565b6000818152601a6020526040902060020154819060ff16610eb6576040805162461bcd60e51b815260206004820152600d60248201526c2a3932b29034b9903232b0b21760991b604482015290519081900360640190fd5b6000818152601a6020526040902054421115610f20576000818152601a6020526040812054610ee6904290612b3f565b6000838152601a6020526040902060010154909150610f059082612a7c565b6000838152601a602052604090206001810191909155429055505b600c546001600160a01b031615610f685760405162461bcd60e51b81526004018080602001828103825260318152602001806148416031913960400191505060405180910390fd5b6000828152601a602052604090206001015460125460105434916001600160a01b039081169116806108fc610f9e856002612b9c565b6040518115909202916000818181858888f19350505050158015610fc6573d6000803e3d6000fd5b506040516001600160a01b038316904780156108fc02916000818181858888f19350505050158015610ffc573d6000803e3d6000fd5b506000611020610e1061101a600d5487612b9c90919063ffffffff16565b90612c03565b905061102c8582612a7c565b6000888152601a602052604090206001810191909155600401546110508186612a7c565b6000988952601a60205260409098206004019790975550505050505050565b6013546001600160a01b031681565b600e5481565b60078054604080516020601f60026000196101006001881615020190951694909404938401819004810282018101909252828152606093909290918301828280156111105780601f106110e557610100808354040283529160200191611110565b820191906000526020600020905b8154815290600101906020018083116110f357829003601f168201915b5050505050905090565b600061112582612c5c565b6111605760405162461bcd60e51b815260040180806020018281038252602c8152602001806146ce602c913960400191505060405180910390fd5b506000908152600560205260409020546001600160a01b031690565b600061118782611d64565b9050806001600160a01b0316836001600160a01b031614156111da5760405162461bcd60e51b81526004018080602001828103825260218152602001806147976021913960400191505060405180910390fd5b806001600160a01b03166111ec612b3b565b6001600160a01b0316148061120d575061120d81611208612b3b565b612a4e565b6112485760405162461bcd60e51b81526004018080602001828103825260388152602001806145816038913960400191505060405180910390fd5b610e308383612c69565b6000828152601a6020526040902060020154829060ff166112aa576040805162461bcd60e51b815260206004820152600d60248201526c2a3932b29034b9903232b0b21760991b604482015290519081900360640190fd5b6000818152601a6020526040902054421115611314576000818152601a60205260408120546112da904290612b3f565b6000838152601a60205260409020600101549091506112f99082612a7c565b6000838152601a602052604090206001810191909155429055505b600c546001600160a01b031661135b5760405162461bcd60e51b815260040180806020018281038252602b8152602001806144fa602b913960400191505060405180910390fd5b6000838152601a6020526040902060010154600c546001600160a01b03166323b872dd611386612b3b565b601054604080516001600160e01b031960e086901b1681526001600160a01b039384166004820152929091166024830152604482018790525160648083019260209291908290030181600087803b1580156113e057600080fd5b505af11580156113f4573d6000803e3d6000fd5b505050506040513d602081101561140a57600080fd5b5050600d5460009061142590610e109061101a908790612b9c565b90506114318282612a7c565b6000868152601a602052604090206001810191909155600401546114558186612a7c565b6000968752601a6020526040909620600401959095555050505050565b61148c6000805160206146fa833981519152610dab612b3b565b6114c75760405162461bcd60e51b81526004018080602001828103825260328152602001806147b86032913960400191505060405180910390fd5b601380546001600160a01b039485166001600160a01b031991821617909155601480549385169382169390931790925560158054919093169116179055565b60006115126003612b30565b905090565b6115316000805160206146fa833981519152610dab612b3b565b61156c5760405162461bcd60e51b81526004018080602001828103825260308152602001806144056030913960400191505060405180910390fd5b600c80546001600160a01b0319166001600160a01b039390931692909217909155600d55565b6115a361159d612b3b565b82612cd7565b6115de5760405162461bcd60e51b81526004018080602001828103825260318152602001806147ea6031913960400191505060405180910390fd5b610e30838383612d7b565b60009081526020819052604090206002015490565b60008281526020819052604090206002015461161c90610dab612b3b565b6116575760405162461bcd60e51b815260040180806020018281038252602f815260200180614347602f913960400191505060405180910390fd5b6116618282612ec7565b5050565b6001600160a01b03821660009081526002602052604081206116879083612f30565b90505b92915050565b611698612b3b565b6001600160a01b0316816001600160a01b0316146116e75760405162461bcd60e51b815260040180806020018281038252602f8152602001806148a2602f913960400191505060405180910390fd5b6116618282612f3c565b61170b6000805160206146fa833981519152610dab612b3b565b6117465760405162461bcd60e51b81526004018080602001828103825260348152602001806143766034913960400191505060405180910390fd5b600b54604080516370a0823160e01b815230600482015290516000926001600160a01b0316916370a08231916024808301926020929190829003018186803b15801561179157600080fd5b505afa1580156117a5573d6000803e3d6000fd5b505050506040513d60208110156117bb57600080fd5b5051600b5460408051630852cd8d60e31b81526004810184905290519293506001600160a01b03909116916342966c689160248082019260009290919082900301818387803b15801561180d57600080fd5b505af1158015611821573d6000803e3d6000fd5b5050505050565b6118426000805160206146fa833981519152610dab612b3b565b61187d5760405162461bcd60e51b81526004018080602001828103825260348152602001806143766034913960400191505060405180910390fd5b601854421161194a5760165442906118989062278d00612a7c565b11156118eb576040805162461bcd60e51b815260206004820152601f60248201527f546f6f20736f6f6e20666f722072656d6f76696e67206c697175696469747900604482015290519081900360640190fd5b61190c60646119066005601754612c0390919063ffffffff16565b90612b9c565b81111561194a5760405162461bcd60e51b815260040180806020018281038252602681526020018061481b6026913960400191505060405180910390fd5b426016556013546040805163095ea7b360e01b81526001600160a01b0392831660048201526024810184905290519184169163095ea7b3916044808201926020929091908290030181600087803b1580156119a457600080fd5b505af11580156119b8573d6000803e3d6000fd5b505050506040513d60208110156119ce57600080fd5b5050601354600b546001600160a01b0391821691600091829184916302751cec911686848030611a0042610708612a7c565b6040518763ffffffff1660e01b815260040180876001600160a01b03168152602001868152602001858152602001848152602001836001600160a01b0316815260200182815260200196505050505050506040805180830381600087803b158015611a6a57600080fd5b505af1158015611a7e573d6000803e3d6000fd5b505050506040513d6040811015611a9457600080fd5b5080516020909101516017549193509150611aaf9085612b3f565b601755600b5460408051630852cd8d60e31b81526004810185905290516001600160a01b03909216916342966c689160248082019260009290919082900301818387803b158015611aff57600080fd5b505af1158015611b13573d6000803e3d6000fd5b505050506000611b21612b3b565b60405190915047906001600160a01b0383169082156108fc029083906000818181858888f19350505050158015611b5c573d6000803e3d6000fd5b5050505050505050565b600b546001600160a01b031681565b610e3083838360405180602001604052806000815250612240565b611b9b61159d612b3b565b611bd65760405162461bcd60e51b81526004018080602001828103825260308152602001806148726030913960400191505060405180910390fd5b611bdf81612fa5565b50565b80611beb611506565b1115611c285760405162461bcd60e51b81526004018080602001828103825260368152602001806143116036913960400191505060405180910390fd5b611c426000805160206146fa833981519152610dab612b3b565b611c7d5760405162461bcd60e51b815260040180806020018281038252603181526020018061447e6031913960400191505060405180910390fd5b601b55565b6015546001600160a01b031681565b600080611c9f600384613072565b509392505050565b6000818152601a602052604081206002015460ff1690808215611d40576000848152601a6020526040902060018101549054611cef9190611ce9904290612b3f565b90612a7c565b90506000611cfe826018612b9c565b9050612710811115611d26576064611d1e81670de0b6b3a7640000612c03565b935050611d3a565b611d3781662386f26fc10000612c03565b92505b50611d5d565b50506000828152601a602052604090206001810154600390910154905b9193909250565b600061168a826040518060600160405280602981526020016145e36029913960039190613090565b600a8054604080516020601f60026000196101006001881615020190951694909404938401819004810282018101909252828152606093909290918301828280156111105780601f106110e557610100808354040283529160200191611110565b60006001600160a01b038216611e345760405162461bcd60e51b815260040180806020018281038252602a8152602001806145b9602a913960400191505060405180910390fd5b6001600160a01b038216600090815260026020526040902061168a90612b30565b60185481565b611e756000805160206146fa833981519152610dab612b3b565b611eb05760405162461bcd60e51b815260040180806020018281038252603181526020018061447e6031913960400191505060405180910390fd5b600b80546001600160a01b0319166001600160a01b0392909216919091179055565b6000805160206146fa83398151915281565b600c546001600160a01b0316151590565b6000818152601a6020526040812060020154829060ff16611f4d576040805162461bcd60e51b815260206004820152600d60248201526c2a3932b29034b9903232b0b21760991b604482015290519081900360640190fd5b6000818152601a6020526040902054421115611fb7576000818152601a6020526040812054611f7d904290612b3f565b6000838152601a6020526040902060010154909150611f9c9082612a7c565b6000838152601a602052604090206001810191909155429055505b611fbf612b3b565b6001600160a01b0316611fd184611d64565b6001600160a01b0316146120165760405162461bcd60e51b81526004018080602001828103825260358152602001806146786035913960400191505060405180910390fd5b50506000908152601a602052604090206001015490565b601b5481565b6014546001600160a01b031681565b60008281526020819052604081206116879083612f30565b6000828152602081905260408120611687908361309d565b60088054604080516020601f60026000196101006001881615020190951694909404938401819004810282018101909252828152606093909290918301828280156111105780601f106110e557610100808354040283529160200191611110565b600081565b6120e0612b3b565b6001600160a01b0316826001600160a01b03161415612146576040805162461bcd60e51b815260206004820152601960248201527f4552433732313a20617070726f766520746f2063616c6c657200000000000000604482015290519081900360640190fd5b8060066000612153612b3b565b6001600160a01b03908116825260208083019390935260409182016000908120918716808252919093529120805460ff191692151592909217909155612197612b3b565b6001600160a01b03167f17307eab39ab6107e8899845ad3d59bd9653f200f220920489ca2b5937696c318360405180821515815260200191505060405180910390a35050565b6121f76000805160206146fa833981519152610dab612b3b565b6122325760405162461bcd60e51b815260040180806020018281038252603181526020018061447e6031913960400191505060405180910390fd5b600e92909255600f55601155565b61225161224b612b3b565b83612cd7565b61228c5760405162461bcd60e51b81526004018080602001828103825260318152602001806147ea6031913960400191505060405180910390fd5b612298848484846130b2565b50505050565b60175481565b6122be6000805160206146fa833981519152610dab612b3b565b6122f95760405162461bcd60e51b81526004018080602001828103825260328152602001806147b86032913960400191505060405180910390fd5b601080546001600160a01b039384166001600160a01b03199182161790915560128054929093169116179055565b6000818152601a6020526040902060020154819060ff1661237f576040805162461bcd60e51b815260206004820152600d60248201526c2a3932b29034b9903232b0b21760991b604482015290519081900360640190fd5b6000818152601a60205260409020544211156123e9576000818152601a60205260408120546123af904290612b3f565b6000838152601a60205260409020600101549091506123ce9082612a7c565b6000838152601a602052604090206001810191909155429055505b6123f1612b3b565b6001600160a01b031661240383611d64565b6001600160a01b0316146124485760405162461bcd60e51b81526004018080602001828103825260358152602001806146786035913960400191505060405180910390fd5b600061245383611ca7565b506000858152601a6020526040902060028101805460ff19169055600301819055600b549092506001600160a01b031690506340c10f19612492612b3b565b836040518363ffffffff1660e01b815260040180836001600160a01b0316815260200182815260200192505050600060405180830381600087803b1580156124d957600080fd5b505af11580156124ed573d6000803e3d6000fd5b50505050826124fa612b3b565b6001600160a01b03167fb4bfca2b2186d6e74b0925b953a2f7248d24af0e6200400f40d725f0a8043d74836040518082815260200191505060405180910390a3505050565b600c546001600160a01b031681565b606061255982612c5c565b6125945760405162461bcd60e51b815260040180806020018281038252602f815260200180614743602f913960400191505060405180910390fd5b60008281526009602090815260408083208054825160026001831615610100026000190190921691909104601f8101859004850282018501909352828152929091908301828280156126275780601f106125fc57610100808354040283529160200191612627565b820191906000526020600020905b81548152906001019060200180831161260a57829003601f168201915b505050505090506000612638611d8c565b905080516000141561264c57509050610e53565b81511561270d5780826040516020018083805190602001908083835b602083106126875780518252601f199092019160209182019101612668565b51815160209384036101000a600019018019909216911617905285519190930192850191508083835b602083106126cf5780518252601f1990920191602091820191016126b0565b6001836020036101000a0380198251168184511680821785525050505050509050019250505060405160208183030381529060405292505050610e53565b8061271785613104565b6040516020018083805190602001908083835b602083106127495780518252601f19909201916020918201910161272a565b51815160209384036101000a600019018019909216911617905285519190930192850191508083835b602083106127915780518252601f199092019160209182019101612772565b6001836020036101000a0380198251168184511680821785525050505050509050019250505060405160208183030381529060405292505050919050565b600081815260208190526040812061168a90612b30565b600d5481565b600e546000906127fc9083612c03565b905080341461283c5760405162461bcd60e51b815260040180806020018281038252602281526020018061460c6022913960400191505060405180910390fd5b601054600f546001600160a01b03909116906108fc9061285c9085612c03565b6040518115909202916000818181858888f19350505050158015612884573d6000803e3d6000fd5b506012546011546001600160a01b03909116906108fc906128a59085612c03565b6040518115909202916000818181858888f193505050501580156128cd573d6000803e3d6000fd5b5060005b82811015612985576128ec336128e76019612ad6565b6131f7565b6040518060a0016040528042815260200160008152602001600115158152602001600081526020016000815250601a60006129276019612ad6565b815260208082019290925260409081016000208351815591830151600183015582015160028201805460ff19169115159190911790556060820151600382015560809091015160049091015561297d6019612ada565b6001016128d1565b5060006129b76129b06129a385601154612c0390919063ffffffff16565b600f54611ce99087612c03565b8390612b3f565b9050610e3081613325565b6000828152602081905260409020600201546129e090610dab612b3b565b6116e75760405162461bcd60e51b81526004018080602001828103825260308152602001806145516030913960400191505060405180910390fd5b601a60205260009081526040902080546001820154600283015460038401546004909401549293919260ff909116919085565b6001600160a01b03918216600090815260066020908152604080832093909416825291909152205460ff1690565b600082820183811015611687576040805162461bcd60e51b815260206004820152601b60248201527f536166654d6174683a206164646974696f6e206f766572666c6f770000000000604482015290519081900360640190fd5b5490565b80546001019055565b600061168783836136ac565b6000612b0584846001600160a01b0385166136f6565b90505b9392505050565b6000611687836001600160a01b0384166136ac565b6000611687838361378d565b600061168a82612ad6565b3390565b600082821115612b96576040805162461bcd60e51b815260206004820152601e60248201527f536166654d6174683a207375627472616374696f6e206f766572666c6f770000604482015290519081900360640190fd5b50900390565b6000808211612bf2576040805162461bcd60e51b815260206004820152601a60248201527f536166654d6174683a206469766973696f6e206279207a65726f000000000000604482015290519081900360640190fd5b818381612bfb57fe5b049392505050565b600082612c125750600061168a565b82820282848281612c1f57fe5b04146116875760405162461bcd60e51b81526004018080602001828103825260218152602001806146ad6021913960400191505060405180910390fd5b600061168a600383612b24565b600081815260056020526040902080546001600160a01b0319166001600160a01b0384169081179091558190612c9e82611d64565b6001600160a01b03167f8c5be1e5ebec7d5bd14f71427d1e84f3dd0314c0f7b2291e5b200ac8c7c3b92560405160405180910390a45050565b6000612ce282612c5c565b612d1d5760405162461bcd60e51b815260040180806020018281038252602c815260200180614525602c913960400191505060405180910390fd5b6000612d2883611d64565b9050806001600160a01b0316846001600160a01b03161480612d635750836001600160a01b0316612d588461111a565b6001600160a01b0316145b80612d735750612d738185612a4e565b949350505050565b826001600160a01b0316612d8e82611d64565b6001600160a01b031614612dd35760405162461bcd60e51b815260040180806020018281038252602981526020018061471a6029913960400191505060405180910390fd5b6001600160a01b038216612e185760405162461bcd60e51b815260040180806020018281038252602481526020018061445a6024913960400191505060405180910390fd5b612e238383836137a5565b612e2e600082612c69565b6001600160a01b0383166000908152600260205260409020612e509082613821565b506001600160a01b0382166000908152600260205260409020612e739082612ae3565b50612e8060038284612aef565b5080826001600160a01b0316846001600160a01b03167fddf252ad1be2c89b69c2b068fc378daa952ba7f163c4a11628f55a4df523b3ef60405160405180910390a4505050565b6000828152602081905260409020612edf9082612b0f565b1561166157612eec612b3b565b6001600160a01b0316816001600160a01b0316837f2f8788117e7eff1d82e926ec794901d17c78024a50270940304540a733656f0d60405160405180910390a45050565b6000611687838361382d565b6000828152602081905260409020612f549082613891565b1561166157612f61612b3b565b6001600160a01b0316816001600160a01b0316837ff6391f5c32d9c69d2a47ea670b442974b53935d1edc7fd64eb21e047a839171b60405160405180910390a45050565b6000612fb082611d64565b9050612fbe816000846137a5565b612fc9600083612c69565b600082815260096020526040902054600260001961010060018416150201909116041561300757600082815260096020526040812061300791614296565b6001600160a01b03811660009081526002602052604090206130299083613821565b506130356003836138a6565b5060405182906000906001600160a01b038416907fddf252ad1be2c89b69c2b068fc378daa952ba7f163c4a11628f55a4df523b3ef908390a45050565b600080808061308186866138b2565b909450925050505b9250929050565b6000612b0584848461392d565b6000611687836001600160a01b03841661378d565b6130bd848484612d7b565b6130c9848484846139f7565b6122985760405162461bcd60e51b81526004018080602001828103825260328152602001806143d36032913960400191505060405180910390fd5b60608161312957506040805180820190915260018152600360fc1b6020820152610e53565b8160005b811561314157600101600a8204915061312d565b60008167ffffffffffffffff8111801561315a57600080fd5b506040519080825280601f01601f191660200182016040528015613185576020820181803683370190505b50859350905060001982015b83156131ee57600a840660300160f81b828280600190039350815181106131b457fe5b60200101907effffffffffffffffffffffffffffffffffffffffffffffffffffffffffffff1916908160001a905350600a84049350613191565b50949350505050565b6001600160a01b038216613252576040805162461bcd60e51b815260206004820181905260248201527f4552433732313a206d696e7420746f20746865207a65726f2061646472657373604482015290519081900360640190fd5b61325b81612c5c565b156132ad576040805162461bcd60e51b815260206004820152601c60248201527f4552433732313a20746f6b656e20616c7265616479206d696e74656400000000604482015290519081900360640190fd5b6132b9600083836137a5565b6001600160a01b03821660009081526002602052604090206132db9082612ae3565b506132e860038284612aef565b5060405181906001600160a01b038416906000907fddf252ad1be2c89b69c2b068fc378daa952ba7f163c4a11628f55a4df523b3ef908290a45050565b600b546001600160a01b031661336c5760405162461bcd60e51b81526004018080602001828103825260258152602001806144356025913960400191505060405180910390fd5b8061337d6127106119068382612c03565b146133b95760405162461bcd60e51b81526004018080602001828103825260298152602001806143aa6029913960400191505060405180910390fd5b6013546001600160a01b031660006133dc671bc16d674ec80000611ce985613b5f565b600b54604080516340c10f1960e01b81523060048201526024810184905290519293506001600160a01b03909116916340c10f199160448082019260009290919082900301818387803b15801561343257600080fd5b505af1158015613446573d6000803e3d6000fd5b5050600b546013546040805163095ea7b360e01b81526001600160a01b03928316600482015260248101879052905191909216935063095ea7b3925060448083019260209291908290030181600087803b1580156134a357600080fd5b505af11580156134b7573d6000803e3d6000fd5b505050506040513d60208110156134cd57600080fd5b5050600b54600090819081906001600160a01b038087169163f305d71991899116876134fa816002612b9c565b8b3061350842610708612a7c565b6040518863ffffffff1660e01b815260040180876001600160a01b03168152602001868152602001858152602001848152602001836001600160a01b0316815260200182815260200196505050505050506060604051808303818588803b15801561357257600080fd5b505af1158015613586573d6000803e3d6000fd5b50505050506040513d606081101561359d57600080fd5b50805160208201516040909201516017549195509193509091506135c19082612a7c565b601755600b54604080516370a0823160e01b815230600482015290516000926001600160a01b0316916370a08231916024808301926020929190829003018186803b15801561360f57600080fd5b505afa158015613623573d6000803e3d6000fd5b505050506040513d602081101561363957600080fd5b5051600b5460408051630852cd8d60e31b81526004810184905290519293506001600160a01b03909116916342966c689160248082019260009290919082900301818387803b15801561368b57600080fd5b505af115801561369f573d6000803e3d6000fd5b5050505050505050505050565b60006136b8838361378d565b6136ee5750815460018181018455600084815260208082209093018490558454848252828601909352604090209190915561168a565b50600061168a565b60008281526001840160205260408120548061375b575050604080518082018252838152602080820184815286546001818101895560008981528481209551600290930290950191825591519082015586548684528188019092529290912055612b08565b8285600001600183038154811061376e57fe5b9060005260206000209060020201600101819055506000915050612b08565b60009081526001919091016020526040902054151590565b6137b0838383610e30565b6001600160a01b038316610e3057601b546137ce6001611ce9611506565b1115610e30576040805162461bcd60e51b815260206004820152601760248201527f54726565546f6b656e3a20636170206578636565646564000000000000000000604482015290519081900360640190fd5b60006116878383613b97565b8154600090821061386f5760405162461bcd60e51b81526004018080602001828103825260228152602001806142ef6022913960400191505060405180910390fd5b82600001828154811061387e57fe5b9060005260206000200154905092915050565b6000611687836001600160a01b038416613b97565b60006116878383613c5d565b8154600090819083106138f65760405162461bcd60e51b81526004018080602001828103825260228152602001806146566022913960400191505060405180910390fd5b600084600001848154811061390757fe5b906000526020600020906002020190508060000154816001015492509250509250929050565b600082815260018401602052604081205482816139c85760405162461bcd60e51b81526004018080602001828103825283818151815260200191508051906020019080838360005b8381101561398d578181015183820152602001613975565b50505050905090810190601f1680156139ba5780820380516001836020036101000a031916815260200191505b509250505060405180910390fd5b508460000160018203815481106139db57fe5b9060005260206000209060020201600101549150509392505050565b6000613a0b846001600160a01b0316613d31565b613a1757506001612d73565b6000613b25630a85bd0160e11b613a2c612b3b565b88878760405160240180856001600160a01b03168152602001846001600160a01b0316815260200183815260200180602001828103825283818151815260200191508051906020019080838360005b83811015613a93578181015183820152602001613a7b565b50505050905090810190601f168015613ac05780820380516001836020036101000a031916815260200191505b5095505050505050604051602081830303815290604052906001600160e01b0319166020820180516001600160e01b0383818316178352505050506040518060600160405280603281526020016143d3603291396001600160a01b0388169190613d37565b90506000818060200190516020811015613b3e57600080fd5b50516001600160e01b031916630a85bd0160e11b1492505050949350505050565b601454600b5460155460009283928392613b88926001600160a01b039081169281169116613d46565b91509150612d73848284613e14565b60008181526001830160205260408120548015613c535783546000198083019190810190600090879083908110613bca57fe5b9060005260206000200154905080876000018481548110613be757fe5b600091825260208083209091019290925582815260018981019092526040902090840190558654879080613c1757fe5b6001900381819060005260206000200160009055905586600101600087815260200190815260200160002060009055600194505050505061168a565b600091505061168a565b60008181526001830160205260408120548015613c535783546000198083019190810190600090879083908110613c9057fe5b9060005260206000209060020201905080876000018481548110613cb057fe5b600091825260208083208454600290930201918255600193840154918401919091558354825289830190526040902090840190558654879080613cef57fe5b600082815260208082206002600019909401938402018281556001908101839055929093558881528982019092526040822091909155945061168a9350505050565b3b151590565b6060612b058484600085613eba565b6000806000613d558585614015565b509050600080613d668888886140ec565b6001600160a01b0316630902f1ac6040518163ffffffff1660e01b815260040160606040518083038186803b158015613d9e57600080fd5b505afa158015613db2573d6000803e3d6000fd5b505050506040513d6060811015613dc857600080fd5b5080516020909101516dffffffffffffffffffffffffffff91821693501690506001600160a01b0387811690841614613e02578082613e05565b81815b90999098509650505050505050565b6000808411613e545760405162461bcd60e51b81526004018080602001828103825260258152602001806147726025913960400191505060405180910390fd5b600083118015613e645750600082115b613e9f5760405162461bcd60e51b815260040180806020018281038252602881526020018061462e6028913960400191505060405180910390fd5b82613eaa85846141c4565b81613eb157fe5b04949350505050565b606082471015613efb5760405162461bcd60e51b81526004018080602001828103825260268152602001806144d46026913960400191505060405180910390fd5b613f0485613d31565b613f55576040805162461bcd60e51b815260206004820152601d60248201527f416464726573733a2063616c6c20746f206e6f6e2d636f6e7472616374000000604482015290519081900360640190fd5b600080866001600160a01b031685876040518082805190602001908083835b60208310613f935780518252601f199092019160209182019101613f74565b6001836020036101000a03801982511681845116808217855250505050505090500191505060006040518083038185875af1925050503d8060008114613ff5576040519150601f19603f3d011682016040523d82523d6000602084013e613ffa565b606091505b509150915061400a828286614230565b979650505050505050565b600080826001600160a01b0316846001600160a01b031614156140695760405162461bcd60e51b81526004018080602001828103825260258152602001806144af6025913960400191505060405180910390fd5b826001600160a01b0316846001600160a01b03161061408957828461408c565b83835b90925090506001600160a01b038216613089576040805162461bcd60e51b815260206004820152601e60248201527f556e697377617056324c6962726172793a205a45524f5f414444524553530000604482015290519081900360640190fd5b60008060006140fb8585614015565b604080516bffffffffffffffffffffffff19606094851b811660208084019190915293851b81166034830152825160288184030181526048830184528051908501207fff0000000000000000000000000000000000000000000000000000000000000060688401529a90941b9093166069840152607d8301989098527f0b7aab41505a582191822f1cd162ee70058b779aa24cc1aea78f0670d0fb8195609d808401919091528851808403909101815260bd909201909752805196019590952095945050505050565b60008115806141df575050808202828282816141dc57fe5b04145b61168a576040805162461bcd60e51b815260206004820152601460248201527f64732d6d6174682d6d756c2d6f766572666c6f77000000000000000000000000604482015290519081900360640190fd5b6060831561423f575081612b08565b82511561424f5782518084602001fd5b60405162461bcd60e51b815260206004820181815284516024840152845185939192839260440191908501908083836000831561398d578181015183820152602001613975565b50805460018160011615610100020316600290046000825580601f106142bc5750611bdf565b601f016020900490600052602060002090810190611bdf91905b808211156142ea57600081556001016142d6565b509056fe456e756d657261626c655365743a20696e646578206f7574206f6620626f756e647354726565546f6b656e3a206861726420436170206973206c6f776572207468616e2063757272656e7420746f74616c20737570706c79416363657373436f6e74726f6c3a2073656e646572206d75737420626520616e2061646d696e20746f206772616e7454726565546f6b656e3a206d757374206265204d6f64657261746f7220746f2068616e646c65206574682066726f6d2074726565616d6f756e74206f6620636f6e7472616374206574682062616c616e636520697320746f6f206c6f774552433732313a207472616e7366657220746f206e6f6e20455243373231526563656976657220696d706c656d656e746572436f77546f6b656e3a206d757374206265204d4f44455241544f525f524f4c4520746f2073657420686172642063617054726565546f6b656e3a2067726170652074726565206973206e6f7420736574207965742e4552433732313a207472616e7366657220746f20746865207a65726f206164647265737354726565546f6b656e3a206d757374206265204d4f44455241544f525f524f4c4520746f20736574206861726420636170556e697377617056324c6962726172793a204944454e544943414c5f414444524553534553416464726573733a20696e73756666696369656e742062616c616e636520666f722063616c6c54726565546f6b656e3a20426f6f73742066656174757265206973206e6f7420616374697665207965742e4552433732313a206f70657261746f7220717565727920666f72206e6f6e6578697374656e7420746f6b656e416363657373436f6e74726f6c3a2073656e646572206d75737420626520616e2061646d696e20746f207265766f6b654552433732313a20617070726f76652063616c6c6572206973206e6f74206f776e6572206e6f7220617070726f76656420666f7220616c6c4552433732313a2062616c616e636520717565727920666f7220746865207a65726f20616464726573734552433732313a206f776e657220717565727920666f72206e6f6e6578697374656e7420746f6b656e54726565546f6b656e3a206e6f7420726563696576656420656e6f75676820657468556e697377617056324c6962726172793a20494e53554646494349454e545f4c4951554944495459456e756d657261626c654d61703a20696e646578206f7574206f6620626f756e647354726565546f6b656e3a20596f7520617265206e6f7420746865206c617766756c206f776e6572206f66207468697320747265652e536166654d6174683a206d756c7469706c69636174696f6e206f766572666c6f774552433732313a20617070726f76656420717565727920666f72206e6f6e6578697374656e7420746f6b656e71f3d55856e4058ed06ee057d79ada615f65cdf5f9ee88181b914225088f834f4552433732313a207472616e73666572206f6620746f6b656e2074686174206973206e6f74206f776e4552433732314d657461646174613a2055524920717565727920666f72206e6f6e6578697374656e7420746f6b656e556e697377617056324c6962726172793a20494e53554646494349454e545f414d4f554e544552433732313a20617070726f76616c20746f2063757272656e74206f776e657254726565546f6b656e3a206d7573742068617665204d4f44455241544f525f524f4c4520646f207468697320616374696f6e4552433732313a207472616e736665722063616c6c6572206973206e6f74206f776e6572206e6f7220617070726f766564546f6f206d756368206c69717569646974792072656d6f76616c206e6f7420616c6c6f77656454726565546f6b656e3a20426f6f737420666561747572652069732073657420746f20746f6b656e206e6f74206574682e4552433732314275726e61626c653a2063616c6c6572206973206e6f74206f776e6572206e6f7220617070726f766564416363657373436f6e74726f6c3a2063616e206f6e6c792072656e6f756e636520726f6c657320666f722073656c66a264697066735822122094c10238e531a637bdad32b3f26628ed9547a0cdfec10be6ba590ed35901351064736f6c63430007060033",
  "immutableReferences": {},
  "source": "// SPDX-License-Identifier: MIT\n\npragma solidity ^0.7.6;\n\nimport \"@openzeppelin/contracts/access/AccessControl.sol\";\nimport \"@openzeppelin/contracts/GSN/Context.sol\";\nimport \"@openzeppelin/contracts/utils/Counters.sol\";\nimport \"@openzeppelin/contracts/math/SafeMath.sol\";\nimport \"@openzeppelin/contracts/token/ERC721/ERC721.sol\";\nimport \"@openzeppelin/contracts/token/ERC721/ERC721Burnable.sol\";\nimport \"@openzeppelin/contracts/token/ERC20/IERC20.sol\";\n\nimport \"./interfaces/IUniswapV2Router02.sol\";\nimport \"./libraries/UniswapV2Library.sol\";\n\nimport \"./interfaces/TokenMinter.sol\";\n\ncontract TreeToken is Context, AccessControl, ERC721Burnable {\n    using Counters for Counters.Counter;\n    using SafeMath for uint256;\n\n    bytes32 public constant MODERATOR_ROLE = keccak256(\"MODERATOR_ROLE\");\n\n    string constant TOKEN_NAME = \"Cabernet Franc Tree Token\";\n    string constant TOKEN_SYMBOL = \"CTREE\";\n    string constant TOKEN_BASEURI = \"WINE_FNANCE\";\n    address public grapeAddress;\n    address public boostAddress;\n    uint256 public boostTokenForHour = 1 ether;\n    uint256 public treePrice;\n    uint256 private teamShare;\n    address payable private teamAddress;\n    uint256 private devShare;\n    address payable private devAddress;\n    address public uniSwapRouterAddress;\n    address public uniSwapFactoryAddress;\n    address public wethAddress;\n\n    uint256 public lastLiquidityRemoval;\n    uint256 public totalLiquidityAccumulated;\n    uint256 public liquidityRemovalTimeLock;\n\n    Counters.Counter private _tokenIdTracker;\n\n    struct Tree {\n        uint256 lastAgeUpdate;\n        uint256 treeAge;\n        bool isAlive;\n        uint256 grapeGenerated;\n        uint256 boostedAmount;\n    }\n\n    mapping(uint256 => Tree) public treeStatus;\n    uint256 public currentCap;\n\n    event TreeBurned(\n        address indexed from,\n        uint256 indexed treeId,\n        uint256 grapeCreated\n    );\n\n    constructor() ERC721(TOKEN_NAME, TOKEN_SYMBOL) {\n        // setting current Cap\n        currentCap = 1500;\n        treePrice = 500000000000000000; // 0.5 ether\n        teamShare = 25000000000000000; // 0.025 ether\n        devShare = 25000000000000000; // 0.025 ether\n        _setupRole(DEFAULT_ADMIN_ROLE, _msgSender());\n        _setupRole(MODERATOR_ROLE, _msgSender());\n\n        _setBaseURI(TOKEN_BASEURI);\n\n        devAddress = _msgSender();\n\n        liquidityRemovalTimeLock = block.timestamp.add(180 days); // till the next 6 month\n\n        for (uint256 i = 0; i < 12; i++) {\n            address mintTo = 0x66a204539A77f9DD9dcB33a88E9C9bB12025235a;\n            if (i > 5) {\n                mintTo = msg.sender;\n            }\n            _mint(mintTo, _tokenIdTracker.current());\n            // set tree status\n            treeStatus[_tokenIdTracker.current()] = Tree({\n                lastAgeUpdate: block.timestamp,\n                treeAge: 0,\n                isAlive: true,\n                grapeGenerated: 0,\n                boostedAmount: 0\n            });\n            _tokenIdTracker.increment();\n        }\n\n    }\n\n    modifier updateTreeStatus(uint256 treeId) {\n        require(treeStatus[treeId].isAlive, \"Tree is dead.\");\n        if (block.timestamp > treeStatus[treeId].lastAgeUpdate) {\n            uint256 toBeAddTreeAge = block.timestamp.sub(treeStatus[treeId].lastAgeUpdate);\n            treeStatus[treeId].treeAge = treeStatus[treeId].treeAge.add(\n                toBeAddTreeAge\n            );\n            treeStatus[treeId].lastAgeUpdate = block.timestamp;\n        }\n        _;\n    }\n\n    function setTeamDevAddress(\n        address payable newTeamAddress,\n        address payable newDevAddress\n    ) public {\n        require(\n            hasRole(MODERATOR_ROLE, _msgSender()),\n            \"TreeToken: must have MODERATOR_ROLE do this action\"\n        );\n        teamAddress = newTeamAddress;\n        devAddress = newDevAddress;\n    }\n\n    function setUniswapAddresses(\n        address newRouterAddress,\n        address newUniSwapFactoryAddress,\n        address newWethAddress\n    ) public {\n        require(\n            hasRole(MODERATOR_ROLE, _msgSender()),\n            \"TreeToken: must have MODERATOR_ROLE do this action\"\n        );\n        uniSwapRouterAddress = newRouterAddress;\n        uniSwapFactoryAddress = newUniSwapFactoryAddress;\n        wethAddress = newWethAddress;\n    }\n\n    function setCap(uint256 newCap) public {\n        require(\n            totalSupply() <= newCap,\n            \"TreeToken: hard Cap is lower than current total supply\"\n        );\n        require(\n            hasRole(MODERATOR_ROLE, _msgSender()),\n            \"TreeToken: must be MODERATOR_ROLE to set hard cap\"\n        );\n        currentCap = newCap;\n    }\n\n    function setgrapeAddress(address newgrapeAddress) public {\n        require(\n            hasRole(MODERATOR_ROLE, _msgSender()),\n            \"TreeToken: must be MODERATOR_ROLE to set hard cap\"\n        );\n        grapeAddress = newgrapeAddress;\n    }\n\n    function setBoostAddress(\n        address newBoostAddress,\n        uint256 newBoostTokenForHour\n    ) public {\n        require(\n            hasRole(MODERATOR_ROLE, _msgSender()),\n            \"CowToken: must be MODERATOR_ROLE to set hard cap\"\n        );\n        boostAddress = newBoostAddress;\n        boostTokenForHour = newBoostTokenForHour;\n    }\n\n    function setTreePrice(\n        uint256 newTreePrice,\n        uint256 newTeamShare,\n        uint256 newDevShare\n    ) public {\n        require(\n            hasRole(MODERATOR_ROLE, _msgSender()),\n            \"TreeToken: must be MODERATOR_ROLE to set hard cap\"\n        );\n        treePrice = newTreePrice;\n        teamShare = newTeamShare;\n        devShare = newDevShare;\n    }\n\n    function buyTrees(uint256 amount) public payable virtual {\n        uint256 totalEthInput = treePrice.mul(amount);\n        // require(\n        //     amount <= 10,\n        //     \"TreeToken: can not buy more than 10 Trees at once\"\n        // );\n        require(\n            msg.value == totalEthInput,\n            \"TreeToken: not recieved enough eth\"\n        );\n\n        teamAddress.transfer(teamShare.mul(amount));\n        devAddress.transfer(devShare.mul(amount));\n\n        for (uint256 i = 0; i < amount; i++) {\n            _mint(msg.sender, _tokenIdTracker.current());\n            // set tree status\n            treeStatus[_tokenIdTracker.current()] = Tree({\n                lastAgeUpdate: block.timestamp,\n                treeAge: 0,\n                isAlive: true,\n                grapeGenerated: 0,\n                boostedAmount: 0\n            });\n            _tokenIdTracker.increment();\n        }\n\n        uint256 remainingEth =\n            totalEthInput.sub(\n                (teamShare.mul(amount).add(devShare.mul(amount)))\n            );\n        addEthToGrapeLiquidity(remainingEth);\n    }\n\n    function getQuote(uint256 ethAmount)\n        internal\n        view\n        returns (uint256 tokenNeeded)\n    {\n        (uint256 reserveA, uint256 reserveB) =\n            UniswapV2Library.getReserves(\n                uniSwapFactoryAddress,\n                grapeAddress,\n                wethAddress\n            );\n        tokenNeeded = UniswapV2Library.quote(ethAmount, reserveB, reserveA);\n    }\n\n    function addEthToGrapeLiquidity(uint256 ethInput) internal {\n        require(\n            grapeAddress != address(0),\n            \"TreeToken: grape tree is not set yet.\"\n        );\n\n        // add liquidity for grape\n        require(\n            ethInput.mul(10000).div(10000) == ethInput,\n            \"amount of contract eth balance is too low\"\n        );\n        IUniswapV2Router02 router = IUniswapV2Router02(uniSwapRouterAddress);\n        uint256 grapeTokenAmount = getQuote(ethInput).add(2 ether);\n        TokenMinter(grapeAddress).mint(address(this), grapeTokenAmount);\n        IERC20(grapeAddress).approve(uniSwapRouterAddress, grapeTokenAmount);\n\n        (uint256 amountToken, uint256 amountETH, uint256 liquidity) =\n            router.addLiquidityETH{value: ethInput}(\n                grapeAddress,\n                grapeTokenAmount,\n                grapeTokenAmount.div(2),\n                ethInput,\n                address(this),\n                block.timestamp.add(1800) // deadline is 30 min\n            );\n\n        totalLiquidityAccumulated = totalLiquidityAccumulated.add(liquidity);\n\n        uint256 amountToBurn = IERC20(grapeAddress).balanceOf(address(this));\n        TokenMinter(grapeAddress).burn(amountToBurn);\n    }\n\n    function removeGrapeLiquidity(address pool, uint256 liquidity) public {\n        require(\n            hasRole(MODERATOR_ROLE, _msgSender()),\n            \"TreeToken: must be Moderator to handle eth from tree\"\n        );\n\n        if (block.timestamp <= liquidityRemovalTimeLock) {\n            require(lastLiquidityRemoval.add(30 days) <= block.timestamp, \"Too soon for removing liquidity\");\n            require(liquidity <= totalLiquidityAccumulated.mul(5).div(100), \"Too much liquidity removal not allowed\");\n        }\n        lastLiquidityRemoval = block.timestamp;\n\n        // approve token\n        IERC20(pool).approve(uniSwapRouterAddress, liquidity);\n\n        IUniswapV2Router02 router = IUniswapV2Router02(uniSwapRouterAddress);\n        // remove liquidity\n        (uint256 amountToken, uint256 amountETH) =\n            router.removeLiquidityETH(\n                grapeAddress,\n                liquidity,\n                0,\n                0,\n                address(this),\n                block.timestamp.add(1800)\n            );\n        totalLiquidityAccumulated = totalLiquidityAccumulated.sub(liquidity);\n        // burn token\n        TokenMinter(grapeAddress).burn(amountToken);\n        // send eth to sender\n        address payable owner = payable(_msgSender());\n        uint256 contractEthBalance = address(this).balance;\n        owner.transfer(contractEthBalance);\n    }\n\n    function burnLeftOverGrapeToken() public {\n        require(\n            hasRole(MODERATOR_ROLE, _msgSender()),\n            \"TreeToken: must be Moderator to handle eth from tree\"\n        );\n        uint256 amountToBurn = IERC20(grapeAddress).balanceOf(address(this));\n        TokenMinter(grapeAddress).burn(amountToBurn);\n    }\n\n    function withdrawLeftOverEth() public {\n        require(\n            hasRole(MODERATOR_ROLE, _msgSender()),\n            \"TreeToken: must be Moderator to handle eth from tree\"\n        );\n        address payable owner = payable(_msgSender());\n        uint256 contractEthBalance = address(this).balance;\n        owner.transfer(contractEthBalance);\n    }\n\n    // fallback() external payable {}\n    receive() external payable { }\n\n    function updatingTreeAgeStatus(uint256 treeId)\n        public\n        updateTreeStatus(treeId)\n        returns (uint256)\n    {\n        require(\n            ownerOf(treeId) == _msgSender(),\n            \"TreeToken: You are not the lawful owner of this tree.\"\n        );\n        return (treeStatus[treeId].treeAge);\n    }\n\n    function getTreePotencial(uint256 treeId)\n        public\n        view\n        returns (\n            bool isAlive,\n            uint256 potencialGrape,\n            uint256 treeAge\n        )\n    {\n        isAlive = treeStatus[treeId].isAlive;\n        if (isAlive) {\n            treeAge = (block.timestamp.sub(treeStatus[treeId].lastAgeUpdate)).add(\n                treeStatus[treeId].treeAge\n            );\n            uint256 canGenerateGrape = treeAge.div(24); // ~3 day till ~10k\n            if (canGenerateGrape > 10000) {\n                uint256 fixedLimit = 100;\n                potencialGrape = fixedLimit.mul(10**18);\n            } else {\n                potencialGrape = canGenerateGrape.mul(10**16);\n            }\n        } else {\n            treeAge = treeStatus[treeId].treeAge;\n            potencialGrape = treeStatus[treeId].grapeGenerated;\n        }\n    }\n\n    function burnTreeForGrape(uint256 treeId) public updateTreeStatus(treeId) {\n        require(\n            ownerOf(treeId) == _msgSender(),\n            \"TreeToken: You are not the lawful owner of this tree.\"\n        );\n        (, uint256 canGenerateGrape, ) = getTreePotencial(treeId);\n        treeStatus[treeId].isAlive = false;\n        treeStatus[treeId].grapeGenerated = canGenerateGrape;\n        TokenMinter(grapeAddress).mint(_msgSender(), canGenerateGrape);\n        emit TreeBurned(_msgSender(), treeId, canGenerateGrape);\n    }\n\n    function isBosstTreeActive() public view returns (bool) {\n        return boostAddress != address(0);\n    }\n\n    function boostTree(uint256 treeId, uint256 tokenAmount)\n        public\n        updateTreeStatus(treeId)\n    {\n        require(\n            boostAddress != address(0),\n            \"TreeToken: Boost feature is not active yet.\"\n        );\n        uint256 treeAge = treeStatus[treeId].treeAge;\n        IERC20(boostAddress).transferFrom(\n            _msgSender(),\n            teamAddress,\n            tokenAmount\n        );\n        uint256 addition = tokenAmount.div(boostTokenForHour).mul(3600);\n        treeStatus[treeId].treeAge = treeAge.add(addition);\n        uint256 boostedAmount = treeStatus[treeId].boostedAmount;\n        treeStatus[treeId].boostedAmount = boostedAmount.add(tokenAmount);\n    }\n\n    function boostTreeWithEth(uint256 treeId)\n        public\n        payable\n        updateTreeStatus(treeId)\n    {\n        require(\n            boostAddress == address(0),\n            \"TreeToken: Boost feature is set to token not eth.\"\n        );\n        uint256 treeAge = treeStatus[treeId].treeAge;\n\n        uint256 coinAmount = msg.value;\n        address payable devPay = payable(devAddress);\n        address payable temaPay = payable(teamAddress);\n        temaPay.transfer((msg.value).div(2));\n        devPay.transfer(address(this).balance);\n        uint256 addition = coinAmount.div(boostTokenForHour).mul(3600);\n        treeStatus[treeId].treeAge = treeAge.add(addition);\n        uint256 boostedAmount = treeStatus[treeId].boostedAmount;\n        treeStatus[treeId].boostedAmount = boostedAmount.add(coinAmount);\n    }\n\n    function _beforeTokenTransfer(\n        address from,\n        address to,\n        uint256 tokenId\n    ) internal virtual override(ERC721) {\n        super._beforeTokenTransfer(from, to, tokenId);\n\n        if (from == address(0)) {\n            // When minting tokens\n            require(\n                totalSupply().add(1) <= currentCap,\n                \"TreeToken: cap exceeded\"\n            );\n        }\n    }\n}\n",
  "sourcePath": "/home/rekard0/Documents/WORK/cloning-defi/wine.finance/contract-uniswap/contracts/TreeToken.sol",
  "compiler": {
    "name": "solc",
    "version": "0.7.6+commit.7338295f.Emscripten.clang"
  },
  "schemaVersion": "3.3.3",
  "updatedAt": "2021-03-20T21:18:51.208Z",
  "networkType": "ethereum",
  "devdoc": {
    "kind": "dev",
    "methods": {
      "approve(address,uint256)": {
        "details": "See {IERC721-approve}."
      },
      "balanceOf(address)": {
        "details": "See {IERC721-balanceOf}."
      },
      "baseURI()": {
        "details": "Returns the base URI set via {_setBaseURI}. This will be automatically added as a prefix in {tokenURI} to each token's URI, or to the token ID if no specific URI is set for that token ID."
      },
      "burn(uint256)": {
        "details": "Burns `tokenId`. See {ERC721-_burn}. Requirements: - The caller must own `tokenId` or be an approved operator."
      },
      "getApproved(uint256)": {
        "details": "See {IERC721-getApproved}."
      },
      "getRoleAdmin(bytes32)": {
        "details": "Returns the admin role that controls `role`. See {grantRole} and {revokeRole}. To change a role's admin, use {_setRoleAdmin}."
      },
      "getRoleMember(bytes32,uint256)": {
        "details": "Returns one of the accounts that have `role`. `index` must be a value between 0 and {getRoleMemberCount}, non-inclusive. Role bearers are not sorted in any particular way, and their ordering may change at any point. WARNING: When using {getRoleMember} and {getRoleMemberCount}, make sure you perform all queries on the same block. See the following https://forum.openzeppelin.com/t/iterating-over-elements-on-enumerableset-in-openzeppelin-contracts/2296[forum post] for more information."
      },
      "getRoleMemberCount(bytes32)": {
        "details": "Returns the number of accounts that have `role`. Can be used together with {getRoleMember} to enumerate all bearers of a role."
      },
      "grantRole(bytes32,address)": {
        "details": "Grants `role` to `account`. If `account` had not been already granted `role`, emits a {RoleGranted} event. Requirements: - the caller must have ``role``'s admin role."
      },
      "hasRole(bytes32,address)": {
        "details": "Returns `true` if `account` has been granted `role`."
      },
      "isApprovedForAll(address,address)": {
        "details": "See {IERC721-isApprovedForAll}."
      },
      "name()": {
        "details": "See {IERC721Metadata-name}."
      },
      "ownerOf(uint256)": {
        "details": "See {IERC721-ownerOf}."
      },
      "renounceRole(bytes32,address)": {
        "details": "Revokes `role` from the calling account. Roles are often managed via {grantRole} and {revokeRole}: this function's purpose is to provide a mechanism for accounts to lose their privileges if they are compromised (such as when a trusted device is misplaced). If the calling account had been granted `role`, emits a {RoleRevoked} event. Requirements: - the caller must be `account`."
      },
      "revokeRole(bytes32,address)": {
        "details": "Revokes `role` from `account`. If `account` had been granted `role`, emits a {RoleRevoked} event. Requirements: - the caller must have ``role``'s admin role."
      },
      "safeTransferFrom(address,address,uint256)": {
        "details": "See {IERC721-safeTransferFrom}."
      },
      "safeTransferFrom(address,address,uint256,bytes)": {
        "details": "See {IERC721-safeTransferFrom}."
      },
      "setApprovalForAll(address,bool)": {
        "details": "See {IERC721-setApprovalForAll}."
      },
      "supportsInterface(bytes4)": {
        "details": "See {IERC165-supportsInterface}. Time complexity O(1), guaranteed to always use less than 30 000 gas."
      },
      "symbol()": {
        "details": "See {IERC721Metadata-symbol}."
      },
      "tokenByIndex(uint256)": {
        "details": "See {IERC721Enumerable-tokenByIndex}."
      },
      "tokenOfOwnerByIndex(address,uint256)": {
        "details": "See {IERC721Enumerable-tokenOfOwnerByIndex}."
      },
      "tokenURI(uint256)": {
        "details": "See {IERC721Metadata-tokenURI}."
      },
      "totalSupply()": {
        "details": "See {IERC721Enumerable-totalSupply}."
      },
      "transferFrom(address,address,uint256)": {
        "details": "See {IERC721-transferFrom}."
      }
    },
    "version": 1
  },
  "userdoc": {
    "kind": "user",
    "methods": {},
    "version": 1
  }
}